:020000040000FA
:1000000000000120B1040000DD040000E104000054
:10001000D9040000D9040000D90400000000000049
:10002000000000000000000000000000E5040000E7
:10003000D904000000000000E9040000A52C000025
:10004000F1040000F5040000F9040000FD040000C4
:100050000105000005050000090500000D05000070
:100060001105000015050000190500001D05000020
:100070002105000025050000290500002D050000D0
:1000800031050000D9040000D9040000D9040000A3
:10009000D9040000D9040000D9040000D9040000EC
:1000A00035050000390500003D0500004105000050
:1000B00045050000490500004D0500005105000000
:1000C00055050000590500005D05000061050000B0
:1000D00065050000D9040000D9040000D90400001F
:1000E000D9040000D9040000D9040000D90400009C
:1000F000D9040000D9040000D9040000D90400008C
:10010000D9040000D9040000D9040000D90400007B
:10011000D9040000D9040000D9040000D90400006B
:10012000D9040000D9040000D90400000124000013
:100130000D240000192400002524000031240000B3
:10014000D9040000D9040000D9040000D90400003B
:10015000D9040000D9040000D9040000D90400002B
:10016000D9040000D9040000D9040000D90400001B
:10017000D9040000D9040000D9040000D90400000B
:1003F000D9040000D9040000D9040000FFFFFFFF6A
:10040000FFFFFFFFFFFFFFFFFFFFFFFFFEFFFFFFFD
:1004100000F002F800F03CF80AA090E8000C8244DA
:100420008344AAF10107DA4501D100F031F8AFF2B7
:10043000090EBAE80F0013F0010F18BFFB1A43F0C2
:1004400001031847E431000004320000103A24BFD1
:1004500078C878C1FAD8520724BF30C830C144BF29
:1004600004680C607047000000230024002500266B
:10047000103A28BF78C1FBD8520728BF30C148BF07
:100480000B6070471FB502F025FF1FBD10B510BDF2
:10049000DFF80CD0FFF7F6FF02F004FE00F04BFA95
:1004A0000000012003B4FFF7F1FF03BC00F04CFA99
:1004B00072B60548054901600A6882F30888044855
:1004C000804762B60348004708ED00E000000000E6
:1004D000B52C000011040000FFF7FEBF22480047C2
:1004E0002248004722480047224800472248004748
:1004F0002248004722480047224800472248004738
:100500002248004722480047224800472248004727
:100510002248004722480047224800472248004717
:100520002248004722480047224800472248004707
:1005300022480047224800472248004722480047F7
:1005400022480047224800472248004722480047E7
:1005500022480047224800472248004722480047D7
:100560002248004722480047DD040000E104000063
:10057000E5040000E9040000A52C0000690F00005C
:10058000D90F0000E90F0000F90F0000091000006A
:100590001910000029100000391000004910000057
:1005A00059100000790F0000890F0000990F00001A
:1005B000A90F0000B90F0000C90F0000D904000006
:1005C000B118000079190000E1260000F1260000B2
:1005D000D9040000D904000095220000E52C000099
:1005E000D9040000FD2C0000D9040000152D0000E6
:1005F000D904000053EA020C00F069802DE9F04BA9
:100600004FF00006002B1FBFB3FA83F503FA05F481
:1006100024FA05F65E4012BF1643B2FA82F502FADA
:1006200005F4C5F120051EBF22FA05FC44EA0C04BE
:10063000203556EA044C4FEA144418BF641C4FF0AE
:1006400000084FF00009904271EB030C39D30029E8
:1006500019BFB1FA81F701FA07F6B0FA80F700FA8C
:1006600007F6C7F120071EBF20FA07FC46EA0C0672
:100670002037B6FBF4FCA7EB0507103F07F01F0B74
:10068000CBF120062CFA06F60CFA0BFB44BFB3465E
:100690000026202FA4BF5E464FF0000B5BEA060C3D
:1006A00008BF4FF0010B19EB0B0948EB0608ABFB39
:1006B000027C06FB02CC0BFB03CCC01B71EB0C01D4
:1006C000C1E70B46024641464846BDE8F08B13B5EC
:1006D000084318BF4FF0FF300146AFF30080BDE87C
:1006E0001C40704753EA020C23D010B54C1084EA2A
:1006F000530404D54042C1F1000138BF491E1B42DA
:1007000004D55242C3F1000338BF5B1EFFF772FFEE
:1007100014F0804F04D04042C1F1000138BF491E9F
:1007200014F0004F04D05242C3F1000338BF5B1EE7
:1007300010BD13B540424FF0000070EB0104B8BF8C
:10074000012001F0004100281CBF6FF000414FF074
:10075000FF30AFF300801CBD10B5431C02E010F861
:10076000011B71B18107FAD14FF0013202C88C1A16
:100770008C4314EAC211F9D0C01A0A0603D0C01E75
:1007800010BDC01A10BD0A0401D0801E10BD0902A0
:10079000FCD0401E10BD01B500F033F801BD01B51D
:1007A00001F0FF03114643EA032242EA024200F04D
:1007B000A1F801BD4FF0000200B5134694469646DD
:1007C000203922BFA0E80C50A0E80C50B1F1200164
:1007D000BFF4F7AF090728BFA0E80C5048BF0CC012
:1007E0005DF804EB890028BF40F8042B08BF704770
:1007F00048BF20F8022B11F0804F18BF00F8012BE2
:100800007047032A40F2308010F0030C00F015808E
:1008100011F8013BBCF1020F624498BF11F801CB03
:1008200000F8013B38BF11F8013BA2F1040298BF68
:1008300000F801CB38BF00F8013B11F0030300F0D2
:100840002580083AC0F0088051F8043B083A51F876
:1008500004CBA0E80810F5E7121D5CBF51F8043B7B
:1008600040F8043BAFF30080D20724BF11F8013BEE
:1008700011F801CB48BF11F8012B24BF00F8013B50
:1008800000F801CB48BF00F8012B704710B5203AA3
:10089000C0F00B80B1E81850A0E81850B1E818502B
:1008A000A0E81850203ABFF4F5AF5FEA027C24BFFD
:1008B000B1E81850A0E8185044BF18C918C0BDE8E6
:1008C00010405FEA827C24BF51F8043B40F8043BAF
:1008D00008BF7047D20728BF31F8023B48BF11F864
:1008E000012B28BF20F8023B48BF00F8012B7047BE
:1008F0004FF000020429C0F0128010F0030C3FF406
:100900005BAFCCF1040CBCF1020F18BF00F8012B57
:10091000A8BF20F8022BA1EB0C01FFF74DBF5FEA47
:10092000C17C24BF00F8012B00F8012B48BF00F860
:10093000012B7047704710B50446AFF30080204686
:10094000BDE81040FFF7AEBD01491820ABBEFEE781
:100950002600020080B5B6480B4901600B4800F044
:10096000E9F90B480B4901F0A5FCB648017801F004
:10097000C7010170084801F0DBFC084800F088FA64
:1009800007480849016080BD000023017033000062
:10099000A000FF1F00127A0064330000283400001A
:1009A0004400FF1F00B4C40480B500F069F803469A
:1009B00001204FF4E1310122BDE8804000F046BD46
:1009C0000B480323816A41F40051816209494DF8C3
:1009D00008ED01F0D5FC5DF808EB816A41F4806117
:1009E0008162054840F223210180818000F03EBBF6
:1009F0001080044000D0044008A0044003480721B0
:100A000001606FF07F414160704700BF10E000E07F
:100A100010B5144600F0C2F90020214600F012FA89
:100A20008848017801F03F010170817901F00C01E3
:100A30000C29FAD1002010BD81B20122000C02FA6B
:100A400001F1224A835823EA01018150704700BF17
:100A5000427801788378AC4802F01F02027003F0FC
:100A60001F02437803F0E0031A44427002781143F6
:100A700041F04001017081784906FCD5704700BF04
:100A800080B500F019F96A4901F035BC0F480068DB
:100A9000C0F38140032804BF4FF47A7070470228E6
:100AA00008D028B9BA4890F90000B0F1FF3F04DD42
:100AB000002070477F48406870477E480068A0F576
:100AC0000040B0FA80F04009C00370470070044055
:100AD00010B500F031F8044600F0EEF8B4EBD00F9A
:100AE000204688BF0020002C08BF204610BD000013
:100AF00010B50C4C2078800712D4607980060FD492
:100B000000F01AF860B1A17807A2C1F3411102EB1D
:100B10008101A278C2F3C01231F81210484310BD0F
:100B2000002010BD014006408002DC020005B8052F
:100B300080079508000A710B10B5D44CA079C00647
:100B400019D400F093F821786378227BC1F3C201B5
:100B500002F00302C84013F0300F00D00AB1022A9D
:100B60000BD106293CBF400910BD0CBF14210C213C
:100B7000B0FBF1F010BD3C48006810BD80B51328F3
:100B80003ED801466A48DFE801F00A0A1219203B04
:100B9000292D313B353D4145493B3B3B3C4D00F028
:100BA0008BF823490122096802EB117114E000F06F
:100BB00083F81F490968C1F303610CE000F07CF879
:100BC0001B490968C1F3035105E000F075F81849A5
:100BD0000968C1F30341013101F0C0BBBDE88040A9
:100BE00000F094B8BDE88040FFF750BFBDE88040FA
:100BF00000F050B8664890F90000B0F1FF3F14DDF6
:100C0000002080BDBDE88040FFF762BFBDE88040A6
:100C100000F010B8BDE88040FFF76ABFBDE8804033
:100C200000F05CB84FF47A7080BD2248006880BD47
:100C30004480044095480078800748BF00F004B81D
:100C4000002070470040064023480178C90702D1C0
:100C5000054800687047044949688078C0F342003D
:100C600021FA00F0704700BF0400FF1F56480078CB
:100C700000F00300022805D0012805D038B90D483E
:100C8000006870472A4870470A484068704700204B
:100C9000704700BF3E4890F90010B1F1FF3FC4BF5C
:100CA00000207047034980780968800921FA00F024
:100CB000704700BFA000FF1F07480078C0F3810005
:100CC000DFE800F002080406FFF712BFFFF7CEBF0F
:100CD00000F004B8FFF7B8BF0640064010B50A4C54
:100CE000A07840065CBF002010BDFFF7BFFF217851
:100CF00001F01F010131B0FBF1F0617801F01F013B
:100D00001831484310BD00BF0440064068480068E1
:100D1000C0F30140032804D0012804D028B9FFF70C
:100D2000E7BE03487047FFF7D9BF0020704700BFF8
:100D3000006CDC0270B516490279202449F6980649
:100D40000B7803F0F0031A430A70124A03689342C7
:100D5000114A38BF1024B342157805F0C30528BFE7
:100D60002544437945EA0304147084790D7805F02D
:100D70005F052C430C70C079800188703BB191F9FC
:100D80000000B0F1FF3F02DC50798007FCD570BD58
:100D90000050064001127A000140064010B50A4991
:100DA00000F003030A780C7804F0FC0423440B7071
:100DB00002F00301814201D1002010BD0348002848
:100DC000FAD000BF0130FAE70C40064024FAFFFFDA
:100DD00070B52E4B9C799D791E7AC6F34206C4F3FA
:100DE0008104964216D01E7805F00105B60701D49D
:100DF000012C07D135B15D7805F0FE055D709D7958
:100E0000ED07FCD11D7A02F0070205F0D00545EA96
:100E100042021A725D7801F0010205F0FE052A44D3
:100E20005A701A7802F0FC02024380071A7001D44B
:100E3000012C04D1987900F001008842FAD10020F9
:100E400070BD00BF10B5114C0846617801F0FD017E
:100E50006170217801F03B0180312170A17901F0AE
:100E60001C010829FAD1617901F0BF016171A179F2
:100E70008906FCD4FFF7ECFD607940F0400060711A
:100E8000A0798006FCD5002010BD00BF00400640C0
:100E90004168074A116401784078136861F311438F
:100EA000044913600A6860F393420A60704700BF08
:100EB00004800440007004402DE9F843804600207F
:100EC0001C4608F8010BD1E90075E2B157EA0500AC
:100ED00043D0002657EA050043D03846294622462B
:100EE0000023FFF7FFFBA0FB042301FB0433BA1A26
:100EF000074675EB030348BF52420D46303208F8EF
:100F000006200136E6E757EA050026D008984FF09C
:100F10005709002818BF4FF03709002657EA050087
:100F20001FD03846294622460023FFF763FBA0FB6B
:100F3000042301FB0433BA1A65EB0303B2F10A0779
:100F400009EB020573F1000338BF02F1300508F820
:100F50000650074601360D46E0E73020012688F8A6
:100F600000003046BDE8F88380B53F48006800F0D7
:100F70001DFB01F0C7B900BF80B53B48806A00F097
:100F800015FB01F0BFB900BF80B53748C06A00F05B
:100F90000DFB01F0B7B900BF80B53348006B00F01E
:100FA00005FB01F0AFB900BF80B52F48406B00F0E2
:100FB000FDFA01F0A7B900BF80B52B48806B00F0A7
:100FC000F5FA01F09FB900BF80B52748C06B00F06B
:100FD000EDFA01F097B900BF80B52348406800F0F2
:100FE000E5FA01F08FB900BF80B51F48806800F0B6
:100FF000DDFA01F087B900BF80B51B48C06800F07A
:10100000D5FA01F07FB900BF80B51748006900F03C
:10101000CDFA01F077B900BF80B51348406900F000
:10102000C5FA01F06FB900BF80B50F48806900F0C4
:10103000BDFA01F067B900BF80B50B48C06900F088
:10104000B5FA01F05FB900BF80B50748006A00F04B
:10105000ADFA01F057B900BF80B50348406A00F00F
:10106000A5FA01F04FB900BFE005FF1F094801686C
:1010700041F4805101600848016841F4E061016079
:10108000416841F4E0614160816841F4E061816060
:10109000704700BF3880044014C0044080B5026827
:1010A000B2F1FF3F02DD00F007F901E000F098F82F
:1010B000BFF34F8F80BD000080B500F005F80149F7
:1010C000085C80BDD300FF1F0146002004A2022857
:1010D00005D052F820308B4201D00130F7E770473D
:1010E00000C0024000D00240F8B50C460546FFF7AC
:1010F000E3FFA369267BE7692168082946D904F143
:10110000080E221D4FF0007CE96A890167D5F91AA3
:10111000F3B2B3EB510F62D9A169236902290FD849
:101120000BB3A16923691B78012906D0216901311C
:1011300021612169097843EA01230026774615E0F9
:10114000002B03460BD02169097823690133236101
:1011500023691B782669013641EA03232661A169C8
:1011600017468E1E02E0002677460346A6613968C0
:1011700019436963C5F82CC0A36983B3216A023996
:101180008B422CD0E769267BA369BDE74FF0007145
:10119000EA6A920123D5FA1AF3B29A421FD222695F
:1011A000002A024604D022691278236901332361A0
:1011B000A369012B4FF0040308BF0823E3581A4327
:1011C0006A63E962A269013AA261A2693AB1236A3B
:1011D000013B9A4203D0E769267BA369D8E7F8BDB3
:1011E000B0B50546C8690C46D8B32068082824D98C
:1011F0004FF40030E96A890333D5A96BE86263696B
:10120000E2692BB16369012A197006D1E16902E034
:10121000E169012A0BD101390AE06269090A013248
:10122000626162691170616901316161E16902396C
:10123000E161E1690029DDD113E04FF40030E96A92
:1012400089030ED5A96BE862626922B162691170E7
:10125000616901316161E1690139E161E169002997
:10126000EDD1A06918B128462146FFF73DFFA069DE
:1012700008B9E06900B1B0BD286B0E4900220840F2
:10128000286394F82400022808BF40F25922D4F8B9
:1012900028C0BCF1000FEED094F824000028EAD05A
:1012A0000020214684F824002846E36ABDE8B040C7
:1012B000604700BFFFFFFDFDF8B50C460546FFF790
:1012C000FBFE616900296CD000EB002E4FEA002C78
:1012D0004FF400334FF00076EA6A920361D5AF6BAA
:1012E000EB62E2682168082915D822B1E1680F7025
:1012F000E1680131E16061690139616121690029B9
:101300003FD0A168074621B1A1680F78A1680131DB
:10131000A16021692AE052B1E1680F70E1680131F2
:10132000E1606169012909D161694F1E0EE06169BF
:101330006269012914BF971E571E07E0E1683A0A47
:101340000A70E1680131E16061698F1E676121699E
:10135000B9B1A16861B1A1680F78A1680131A1603C
:101360002169012912D1216947EA0C07013906E0F8
:10137000216977462269012914BF911E511E2161FE
:101380006F63EE6261690029A6D10AE0A16809785D
:10139000A268013247EA0127A2602269023A22616B
:1013A000EEE76069217F022918BF00281AD1286B57
:1013B0001D49002208402863A260E2606261226148
:1013C000207F2277D4F824C0BCF1000F2AD0022855
:1013D00008BF40F25922A36A2846214601B0BDE861
:1013E000F0406047E86A00010CD5286B000109D580
:1013F0004FF00060E862A06808B102202077206A00
:1014000001302062E86A00030CD5286B000309D57F
:101410004FF40020E862A06808B102202077206A1B
:1014200001302062F8BD00BFFFFFF5F5E0B50020F8
:101430008DF807000DF1070000F06CF89DF807101B
:101440000028D8BF4FF0FF3108468CBDB0B588B03A
:1014500000248DF80E00194848F64175CDE9003199
:10146000012A0694CDE90444ADF81A508DF81820ED
:10147000ADF80C4002901CD14A4C68460021202255
:10148000079004F10800FFF78AF904F10C00A0604E
:1014900004A901F081F9207804F12001A06801F08D
:1014A000A7F9A06804F1240101F08BF9A16861603B
:1014B00001E043F2215008B0B0BD00BF00000101BF
:1014C0002DE9F0411C4690460E4607460025A542F0
:1014D000A8BFBDE8F0813168A1F17F0010F1810F54
:1014E00004D8384600F032F80021316007F8018056
:1014F0000135306801303060E9E783B0C0B503AF33
:101500000EC703A9009100F035F8BDE8884003B08C
:101510007047000010B523494FF0FF34496821B1EE
:1015200000F006F8002808BF0124204610BD00BFC7
:10153000B0B51C4D01460122012405F1240001F043
:101540006AF908B9287800242046B0BD10B50C46C9
:1015500061B101461348426842B12030224601F091
:1015600064F9002818BF4FF0FF3400E00024204643
:1015700010BD00BF70B5A0B00C460546684680217E
:10158000FFF718F90748406840B16E46064B00F077
:10159000C6FE01463046FFF7D9FF00E0002020B02C
:1015A00070BD00BF7800FF1FC1140000F8B50446ED
:1015B000D0E9021041F21C06227CCA7701EB4213EB
:1015C0009D5B05F08005C8B19F1941F218069B5933
:1015D0001E1A3B8870091DB9202E38BF207D0138A6
:1015E000677CC6B2BE4219D1E17C227D914218BF10
:1015F00013F010011ED194F913301CE0D4F800C090
:10160000BCF1000F2FD06168002D18BF01252046C6
:101610002A46002301B0BDE8F040604794F911303C
:10162000F31AB3F1FF3F02DC94F91460334415B1AF
:101630000A7700E000236074E07CC01AE07426683A
:1016400036B161682A462046002D18BF0122B047F6
:101650004DB1207CA16841F21C0301EB4012D25A2B
:10166000D20648BF0877F8BD10F180010AD00028E3
:1016700008D400F01F010122400902FA01F1024AD8
:1016800042F82010704700BF00E100E0BFB5B8B1DC
:101690000D46A9B10446007C012813D1628AE06896
:1016A00000210123CDE9001300F048FE30B9628A21
:1016B000E06821462B4601F048F830B1042002E0F2
:1016C000012000E0032004B0B0BD628AE068002180
:1016D0000123CDE9003300F031FE002818BF0120BE
:1016E0008000F0E72DE9FF41044600208DF80F004F
:1016F000D4B101200E46F1B100270DF10F01227285
:101700001D461A46DDF828801323C4E90077CDE989
:1017100000013046214600F0E7FE9DF80F1088F8E2
:10172000001018B1022005E0012004E0002001278C
:101730006582E660277404B0BDE8F0811CB590B105
:101740000B4681B17AB10146007C01281CBF032001
:101750001CBD4C8AC8680092224600F0D3FF0028C6
:1017600018BF05201CBD01201CBDC0E90012704738
:101770000146002004A2052805D052F820308B42F3
:1017800001D00130F7E7704700F00F4040F00F4004
:1017900080F00F40C0F00F4000F10F4013785BB1B4
:1017A0000123527803FA01F10423002A08BF082319
:1017B000C1504269114305E0012202FA01F1426978
:1017C00022EA01014161704710B50C46FFF7D0FFD6
:1017D0000849C0B251F82000C0F8A04010BD00BFB9
:1017E00080B5FFF7C5FF0349C0B251F82000D0F81B
:1017F000A00080BD083400007FB501AE04460D4650
:10180000304601F0B2FA4FF48070ADF80900D5E926
:1018100000200190A87A002818BF01208DF80F0041
:10182000E87A002818BF01208DF80E00287B0028D8
:1018300018BF01208DF80B00687B002818BF01201D
:101840008DF80C00287A0146032818BF00210228D1
:1018500008BF01468DF80810A87B124951F82000F6
:10186000314601F0AFFA10B142F6AF7002E0A87B4A
:101870002070002004B070BD80B50078094B53F88B
:10188000200001F015FB002818BF42F6AF7080BDA4
:1018900080B50078034B53F8200001F04EFB002088
:1018A00080BD00BF783300000C4800F009BD00BFC8
:1018B000F0480168014800F0B7BC00BF0060064076
:1018C0000220FFF75BB900000348016841F4806122
:1018D0000160024800F075BD3880044008A0044053
:1018E000244A00F061B800BF2248406840690028DF
:1018F00008BF0420704700BF1E4800F09FB800BF1B
:1019000010B50446FFF7E0FF1A48017BC90702BF84
:10191000012101738460002010BD00BF154900F053
:10192000ABB800BF80B5FFF7BFFF124800210173BD
:10193000002080BD1CB50F4C009400F0AFFA1CBD18
:101940001CB50C4C009400F0EDFA1CBD01281CBF26
:101950000249086002480121017070474800FF1FDA
:10196000D000FF1F034A00F02FBC00BF014A00F067
:1019700043BC00BF6000FF1FBE484168014800F043
:1019800053BC00BF007006400146002004A202289C
:1019900005D052F820308B4201D00130F7E7704774
:1019A0000060064000700640B0B5144604281AD006
:1019B000022806D0012813D1480021680968087060
:1019C00029E04D1E022D0BD82068D0E90040804749
:1019D000024617A050F82510204600F0C1F81AE082
:1019E0006FF00300B0BD206800688178890614D4C8
:1019F000C17849070FD4817841F00801817061688E
:101A00000A78002AFCD100F0D3FA616800208860CF
:101A10006168C860B0BD0020B0BD616800F0E9F841
:101A20006168002088616168086161684861B0BDD3
:101A3000A0860100801A060040420F0010B504463F
:101A40000068006800F064F821680968097821B12D
:101A50006268042181430C3204E0626800F00401F2
:101A60000231143200F0100001F006010844116840
:101A7000002918BF013010BDB0B50C46022810D0A7
:101A800068BB207B800728D5042000212246002542
:101A9000FFF78AFF2068006800F02EF8012020730D
:101AA00022E0207BF0B1800717D420680068FFF7A0
:101AB0006BFF0EA10F4A012551F82000010C80B2E6
:101AC0008B5805FA00F0184388508021207B40F0A5
:101AD00002002073206800688170002504E06FF028
:101AE000030501E04FF0FF352846B0BD0600341075
:101AF000070034100070044080B500F06CFC03490E
:101B000051F82000BDE88040FEF796BF5C3300002E
:101B1000C1788279807902F0400200F0100041EA39
:101B2000022141EA0020704770B500F064FCA17802
:101B3000890604D4800644BF40F24C4070BD6078F2
:101B400000F03F016170A17841F01401A170607054
:101B50000620010602D000BF0138FAE700F028BCD9
:101B60002DE9F041DFF858C04FF0FF364FF0000884
:101B70004FF0000E0024B8F1020F1AD8CEB10027A2
:101B8000402F13D03CF8175005FA08F5B2FBF5F3D7
:101B90005D1A38BFCD1AB54203D2C6463C462E4622
:101BA0000DB10137ECE70026C6463C4608F10108B6
:101BB000E1E704F03F0141EA8E114170BDE8F08198
:101BC0008433000070B500F016FC800644BF40F27C
:101BD0004C4070BDA07840F03000A07000F0E8BB31
:101BE000817801F0C7018170C1788906FCD400209A
:101BF0007047827802F0BF02827000220A778278F2
:101C000092065CBF40F24C407047497901290ED1E1
:101C1000817841F008018170C1788907FCD50221E3
:101C2000C170817801F0C7018170007908E0C17846
:101C30008907FCD50221C170817801F0C70181704C
:101C400000207047F8B51C4615460E46FFF79CFE6F
:101C50000746304600212822FEF7A1FDEA48C6E9E2
:101C6000085440F82760E948C057BDE8F840FFF73E
:101C7000FBBC00BF2006FF1F70B5054602200C46C6
:101C8000E870087FE9786269CB0613D480F003031B
:101C900080F00506134382F00102324318BF40F280
:101CA0004E42002B08BF1A4601F001035B4203EAD3
:101CB000020603E0102240F24F46EA7001280ED1DE
:101CC000C80703D1207B20B1022007E040F2514633
:101CD00040E061790420002908BF03202077002E0E
:101CE00038D10238032831D8DFE800F0020E1B2873
:101CF000207B002852D00138A1682073C0B2C000F8
:101D000021FA00F0287121E0606900285ED0206986
:101D100000782871206901302061606901386061B4
:101D200014E0A87800F062FB6069012803D1A8786C
:101D300040F00800A8700520207707E06069411E88
:101D4000616118B16069A8B3002046E00020002658
:101D5000304322D02078400707D540F251408642D8
:101D600003D040F24E40864205D1A878800602D5C5
:101D70002846FFF735FF00202077A87800F0BF0045
:101D8000A870D4F820C0BCF1000F06D0636A2846C2
:101D900021463246BDE87040604770BD607980B131
:101DA000217928460122FFF7BFFE0646042020774E
:101DB0000020CDE7207840070AD42846FFF710FF1F
:101DC0000AE0606910B103202077A0E70026C1E790
:101DD000A87840F01000A8700120297922691170BC
:101DE00021690131216161690129B0D1A97841F0EE
:101DF0000801A970ABE7F8B50446087F10B140F2BE
:101E00004C40F8BD13465279D3F800C0D3F804E033
:101E10009E68DF6818695D694D610861CF608E60FA
:101E2000C1F804E0C1F800C058698861087B18B1A6
:101E30005B79013B08BF1A46A37943F05003A371B5
:101E4000A37943F05003A37101230B771223E370AE
:101E50000B68DD0706D1097998070FD42046FFF7F4
:101E6000B1FE0EE0A8B10220087794F90300B0F1AA
:101E7000FF3FFADC2046FFF7FFFE04E02046FFF7B5
:101E800053FE00B1F8BDA07840F04000A0700020E3
:101E9000F8BD0AB10420F8BD0320E5E72DE9F041C3
:101EA00086B000F07EFA04D06FF0010006B0BDE805
:101EB000F081206898461646A3683C4A0068FFF700
:101EC000C1FE04970596002001218DF804508DF87D
:101ED0000C000290009020688DF805100068C17811
:101EE00011F0200108BFB8F1000F08D00622002928
:101EF00008BF0422B8F1000F08BF022200926168F7
:101F00006A46FFF778FF0028D0D0B0F58A6F06D078
:101F100040F24C418842C7D04FF0FF30C6E76FF027
:101F20000200C3E72DE9F04186B000F03AFA04D090
:101F30006FF0010006B0BDE8F081206898461646B3
:101F4000A3681A4A0068FFF77DFE049705960020F3
:101F50008DF804508DF80C0002908DF8050000906B
:101F600020680068C17811F0200108BFB8F1000FA7
:101F700008D00622002908BF0422B8F1000F08BFCC
:101F80000222009261686A46FFF735FF0028D1D02F
:101F9000B0F58A6F06D040F24C418842C8D04FF06D
:101FA000FF30C7E76FF00200C4E700BF592200000E
:101FB000B0B50C46097871B181781422002501F082
:101FC000BF018170817901F08F018171201D002195
:101FD000FEF7E5FB2570B0BDF8B51C4615460E466C
:101FE000FFF7D2FC0746304600212422FEF7D7FB3C
:101FF0000548C6E9075440F827600448C057BDE8C3
:10200000F840FFF731BB00BF2006FF1F043400007B
:10201000F8B50C460546FFF77BFD261D0746400434
:1020200017D5A879022140F04000A8710020E8707F
:10203000E970217851B12021206121712070207E2A
:10204000800603D5E3690BB100F08BF9780640F107
:102050008C80F80412D5A87940F01000A8710020F7
:10206000E8700220E87010202071207EC00603D5A1
:10207000E3690BB100F075F9780676D50220E870B7
:10208000F80721D1780639D438066DD578074DD4B4
:10209000E068A16801B138B9E369042020710BB18F
:1020A00000F05FF9002060612879E16800295CD0C8
:1020B000A1684A1CA2600870E06861690138E060AC
:1020C000481C6061E068F8BDA87800F08FF9E0680E
:1020D00000284AD040F24E4020612020207100208C
:1020E0002070207E800640D5E369002B3DD0226A17
:1020F0002846314601B0BDE8F04018470120207065
:1021000020717907A87804D400F070F970B3002723
:1021100003E040F010000127A8700120A1690142EE
:1021200003D0E3690BB100F01CF9F7B1E068A168D6
:1021300001B138B9E369022020710BB100F011F947
:1021400000206061E06858B1A0686169421CA2602B
:1021500000782871481C6061E0680138E060F8BDD3
:10216000A87800F0E700A8702879F8BD4020002783
:102170003070D3E7F8B50446087810B140F24C4708
:1021800020E0A07816460D461422002700F0BF007C
:10219000A070A07900F08F00A071081D0021FEF74B
:1021A000FEFA01202870A07900F0AFF8A07840F086
:1021B0004000A07046F04600A861A07900F08F00B2
:1021C0002030A0713846F8BD70B50D46064692E83D
:1021D0000B001446802200684271124AFFF7FCFE91
:1021E00000F0B6F800F07AF808BF6FF0010200289E
:1021F00018BF104670BD00BF70B50D46064692E888
:102200000B001446074A0068FFF7E6FE00F0A0F84E
:1022100000F064F808BF6FF00102002818BF1046F4
:1022200070BD00BF7D22000080B5C278837802F0C7
:10223000100203F02003D21802D1FFF7E9FE01E0FB
:10224000FFF71AFDBFF34F8F80BD002070470000DD
:10225000004870470402020252B140F24F408242ED
:1022600008D040F25140824214BF0220102002E008
:10227000012000E0402003B11847704742B10978BF
:102280000220402908BF2020202908BF0120104734
:102290007047000080B5044801680448026804489B
:1022A0009047BFF34F8F80BD2806FF1F5800FF1FC8
:1022B00000A002400022016002200021FEF788BD3C
:1022C000016821F4E0610160416821F4E06141604E
:1022D0007047D9F8282004200021104761680022A7
:1022E0008E606168CD6061684A6140F24C414FF098
:1022F000FF32884270470122096802EB1171B0FB7E
:10230000F1F080BDBFF34F8F80BD40F05000A07151
:10231000A07940F05000A0711220E070704728466C
:102320002146324600F092BA304621460123284722
:10233000002100F108020020FEF76ABB029121464D
:10234000152300F02BB9395401214AF820107047A9
:10235000D4E9000120220068FFF70CBFB0FBF1F0C8
:1023600080BD226A284631461847016821F00401E1
:1023700001600020BFF34F8F30BFBFF36F8F7047F6
:102380000A6863F30A220A604A6863F30A224A6011
:10239000016821F0300101607047207A395C002922
:1023A00070470C9C0F4605466168087F00287047FF
:1023B000701EB0FA80F0400940EA4500207100200C
:1023C00070BD40F22321018081807047DBF8282016
:1023D000042000211047817801F07F018170FFF710
:1023E000D3BABFF34F8FBFF34F8F80BD00F0E7002C
:1023F000A8702879704716460D460446FFF788BB3B
:102400000148002100F0B6BD00F00F400148012155
:1024100000F0B0BD40F00F400148022100F0AABD1D
:1024200080F00F400148032100F0A4BDC0F00F4030
:102430000148042100F09EBD00F10F402DE9F84F46
:10244000DDE90A7CDDE90C6882469B4691460D4633
:102450000007644616D45FEACA7024D1A5EB0903CD
:10246000304641462022CDF800C0E047BBF1000FC6
:1024700027D05A46AB46009D304641460123A84727
:102480005D461EE0BBF1000F05D0304641465A467E
:102490000123A047A446A5EB09033046414630225C
:1024A000E047A9460DE0BBF1000F0AD03046414697
:1024B0005A460123E04704E0304641460123E04705
:1024C000013F3A78A446002AF6D15FEACA7008BFF5
:1024D000BDE8F88FA5EB090330464146202201B044
:1024E000BDE8F04F604700002DE9F84F8346087AB9
:1024F000724F0C460021DFF8C8A11646FFF723FFF4
:102500008DF8033010460DF1030101220123DBF8A1
:102510001450A84708B1BDE8F88FDDE90A98FFF725
:102520003CFF06D1216800290EBF00BF60688847C4
:10253000F5E75AF82010022902D1FFF747FF207A69
:102540005AF8201001291CBF4FF0FF30BDE8F88F6A
:1025500000214A460023FFF7F6FE30464146DBF8ED
:102560001850A8470028D6D105E0216800290EBFE1
:1025700000BF60688847FFF710FFF6D05AF82010B8
:10258000022902D1FFF722FF207A5AF820000138F1
:1025900018BF4FF0FF30BDE8F88F00BF2DE9F84FAE
:1025A0000C46DDE90AB80021814616468DF8023056
:1025B000207A8DF80310B8F1000F4ED03F4FDFF8AE
:1025C00000A101220123FFF7BEFE0DF102013046FA
:1025D000D9F81450A84708B1BDE8F88F0DF10200F2
:1025E000451CFFF7DAFE06D1216800290EBF00BFA7
:1025F00060688847F5E75AF82010022902D1FFF7F2
:1026000068FE207A5AF82010012953D100210122B6
:102610000023FFF798FE29463046D9F81850A847FE
:102620000028D9D105E0216800290EBF00BF6068ED
:102630008847FFF7B2FEF6D05AF82010022902D1DF
:10264000FFF747FE207A5AF82010012932D19DF871
:10265000031021EA08014BEA010B184F0021DFF8B3
:1026600060800C9B02223954012148F820100DF1A2
:10267000020130468DF803B0D9F81450A84700285D
:10268000AAD105E0216800290EBF00BF6068884715
:10269000FFF783FEF6D058F82010022902D1FFF789
:1026A00018FE207A58F82000013818BF4FF0FF308C
:1026B000BDE8F88F4FF0FF30BDE8F88FD000FF1F66
:1026C0004800FF1F417801F09F0140314170002018
:1026D000704700000148FFF748BE00BF10ED00E062
:1026E000064801680148FEF7D9BC00BF00C002409F
:1026F000024841680248FEF7D1BC00BFD800FF1F66
:1027000000D002402DE9FC41B0B1ABB1089F9FB1B0
:1027100090460D4606469C1C207880B114F8023C79
:10272000CDE90007304629464246FFF7DDFE48B9AD
:1027300014F8040B0744EFE70220BDE8FC810020F9
:10274000BDE8FC810520BDE8FC812DE9FE4300B316
:10275000FBB19046894606469F1C4FF6FF747D8864
:10276000281B18BF012039787A7817F8023C0290AC
:102770003046CDE9001249464246FFF70FFF10B937
:102780000437A542EBD1002818BF01208000BDE826
:10279000FE830220BDE8FE83B0B50C460021142262
:1027A0000546FDF7FCFF207A012828701CBF43F284
:1027B0002150B0BDE16805F10C00BDE8B04000F06B
:1027C0003EB8F8B5EFF3108772B60646406810B110
:1027D00043F2225408E00D467160084600210422AD
:1027E0000024FDF7DCFF2E6087F310882046F8BD3B
:1027F000B0B50546EFF3108072B60C460422A96806
:102800000131A960002180F310882046FDF7C7FF41
:1028100000202560B0BD00680378012B1CBF43F287
:10282000215070470C3000F00CB800680378012B81
:102830001CBF43F2215070470C3000F004B8FEF783
:10284000DBBFFFF719B8FFF723B800002DE9F04F01
:1028500099B0074600201D46164608910F90CDE915
:102860000A000FAC3A78002A00F01882252A03D01B
:10287000FFF75AFD0137F5E7089C4FF0000978781B
:10288000202809D0232809D02B2809D02D2809D0A9
:1028900030280CD1082006E0042004E0102002E0DB
:1028A000022000E0012049EA00090137E7E74FF084
:1028B000000B01373878A0F130010A2906D20BEB62
:1028C0008B0100EB4100A0F1300BF2E72A2802D186
:1028D00054F804BBEDE73A46079612F801092E2892
:1028E0001AD14FF000084FF0000A01373878A0F1F4
:1028F0003001092909D80AEB8A0101374FF0010894
:1029000000EB4100A0F1300AF0E72A2809D154F881
:1029100004AB4FF00108E8E74FF0060A4FF000085B
:1029200002E017F801093A46511C6C2807D06828C4
:102930000CD112F8020F68280AD120200CE012F8FE
:10294000020F6C2806D14FF4807005E0002003E0F0
:10295000402000E080200A46577840EA0906692FA7
:1029600001D0642F05D1F005069210D401CCC71711
:1029700013E007F0DF00582840D0462846D1E01D7C
:1029800020F00700083008900FAC079E34E0E01DEF
:1029900020F00704676854F8080B4FF001080DF1A8
:1029A000430ACDE90C0701220A23CDF800805046E6
:1029B0000CA9FEF781FA002F3746089408D45FEA85
:1029C000897107D409F00401C9F38008CB0004E041
:1029D0002D2302E04FF001082B23079E0AEB000194
:1029E00008EB00023846CDE90015594602960FACB7
:1029F0000394FFF723FD069A971C33E7F005069230
:102A00000DF1430019D402CC00221CE0A7F16F00A5
:102A1000062862D8DFE800F07104E1E1ECE1710022
:102A200001CC914604223746CDE908400AA809A9FD
:102A3000FDF7B1FE0DF1430801E1E11D21F00704AE
:102A4000626854F8081BCDE90A12B7F1780118BF83
:102A500001210091002210230AA9FEF72DFA014658
:102A60005FEA097008942DD409F0100A5FEAC97072
:102A700048D18C1C0E462046BAF1000F08BF08460C
:102A8000ABEB0003202207980FA9A847BAF1000F6B
:102A90003046B0460DF1430A00F08A80079804944E
:102AA0000FAC30220123A8462146A847782F18BF33
:102AB0005827079821463A460123A847DDF8108099
:102AC000304675E019F0100A05911FD10020079ECD
:102AD0000DF13C082C4604902CE0622F0DD0632FA2
:102AE0007BD1174614F8042B079E012308940FACE2
:102AF00030462146A8473A467EE7F0053FD402CC4F
:102B0000002042E00020059188461BE0079E01203E
:102B10000DF13C08302201232C46049041463046FA
:102B2000A847782F3A463046414618BF582201231D
:102B3000A8470599ABEB0103304641463022A04738
:102B40000498D846BAF1000F2FD00DF1430A70BB9C
:102B5000079E0FAC30220123CDF81080A8462146F5
:102B60003046A847782F18BF5827304621463A46A6
:102B70000123A847DDF8108008F1020817E0E01DE6
:102B800020F00704606854F8081B0DF14308702F0B
:102B9000CDE90A10089450D06F2F54D0622F3746D9
:102BA000914614BF0A23022350E00DF1430A059811
:102BB0000FAC079E0AEB00073A781AB1FFF7B4FB97
:102BC000013FF9E75FEAC9703FF415AFABEB0803CB
:102BD000304621462022A8470DE7079E08940FACF7
:102BE00090463A46012321463046A847424603E72D
:102BF00080CC002F08943FF4C7AEB8F1000F5646C2
:102C0000069203D13846FDF7A7FD064619F00109E3
:102C100005D10798ABEB06030FA92022A847B8F10E
:102C2000000F31D03A7832B3012E24DB07980FA978
:102C30000123A847013E0137F4E7374691460FAC20
:102C4000079E102304E03746914608230FAC079EE9
:102C500001200022009040460AA9FEF72DF9024605
:102C600040445946002303948DE861003846FFF73D
:102C7000E5FB4A46C0E6AAEB06080FAC079EB9F191
:102C8000000F3FF4B8AEA1E7B0460FAC079E3A780C
:102C9000002AF4D0FFF748FB0137F8E70F9819B086
:102CA000BDE8F08F0248016801310160704700BF44
:102CB0007000FF1F0848016841F470010160074877
:102CC0004CF22051C1814DF62811C1814FF4E971B8
:102CD000018000F005B800BF88ED00E0002005404D
:102CE0007047000080B5104801681048026802482B
:102CF0009047FFF776BB00BF00A0064080B50A48AA
:102D000041680A48026802489047FFF76ABB00BF63
:102D100000B0064080B50448816804480268044851
:102D20009047FFF75EBB00BF2C06FF1F5C00FF1F34
:102D300000C0064010B50C46417901F03F0141EA60
:102D400014214171210E8174E10607D00179C17906
:102D500001218174417C41F04001417400F026F86A
:102D6000204018BF40F2EE3010BDB0B500210C225B
:102D700004460025FDF713FD4FF480304FF4E13198
:102D8000A560C4E90010B0BD0146002004A20328DC
:102D900005D052F820308B4201D00130F7E7704760
:102DA00000A0064000B0064000C00640017942790C
:102DB00041EA0221027B807C41EA024141EA006053
:102DC00070470000F8B5044608680D465100B1FB95
:102DD000F0F6B1FBF6F1431A38BF0B1A0101B2FB52
:102DE000F1F7B2EB001F38BF01276421B0FBF1F00F
:102DF00000EB4000834284BF40F2F530F8BD20462E
:102E0000FFF7C2FF2949964A51F820009446010C69
:102E100080B28B58012202FA00F0184341F80C00EE
:102E2000E07800F0F300E070207800F0E00040EA85
:102E300017202070677006F01F00A17A01F0E001F2
:102E40000844A07228796979AA796B7AA67806F085
:102E5000E806002863F3820640EA060318BF43F041
:102E60001006A670E1746275207C40F08800207422
:102E7000607C40F0C0006074E87918B1607B40F07D
:102E800008006073287A18B1607B40F0010060731D
:102E9000A87AE97AE278002818BF42F008020029EF
:102EA00018BF42F00402E2700020F8BD1C3400009C
:102EB0002DE9F041154688460446E5B3013DA07D65
:102EC00020BB2046FFF772FF0646000722D4F0071A
:102ED00001D1002709E020460121FFF72BFF40F236
:102EE000EE37002808BF4FF47D77B00709D520469C
:102EF0000221FFF71FFF40F2EE37002808BF40F223
:102F0000F33770070AD4002FD9D011E0E07908F820
:102F1000010BD2E740F2F137082102E040F2F2372C
:102F200004212046FFF706FF002818BF40F2EE37C5
:102F30003846BDE8F0810027FAE74AB1013A90F936
:102F40000430B3F1FF3FFADC11F8013BC371F4E741
:102F500001794906FCD5002070470000D7480121BF
:102F6000017070470168C068886070474FF00220A8
:102F7000704700002DE9F84380463B4800EB0127ED
:102F80004046FEF72DFC054600244FF00109202C99
:102F900008BFBDE8F88309FA04F62E420AD007EB11
:102FA000C400416831B157F8340088474046314683
:102FB000FEF70AFC0134EAE72DE9F0419846154690
:102FC00006464AB9254DA878EA7840F00300A87073
:102FD00002F0F8000130E87072692148D6E900EC8F
:102FE0000124170C92B23B5804FA02F21A433A50E9
:102FF00000296888B2682CF8220018BF01212970C6
:10300000704611462A46FEF7C9FBB8F1000F23D0DF
:1030100096F91010069811F180020AD0002908D400
:1030200001F01F020123490903FA02F20D4B43F894
:103030002120317E0C4A02EB0121D6E9012341F81F
:10304000330001EBC300C0F80480287952F8231044
:1030500060F3134142F82310BDE8F0815000FF1FD8
:103060000070044000E100E0E000FF1F016880689C
:10307000096921FA00F000F0010070470168C0689A
:10308000486070470168C068C86070470422002922
:1030900008BF082201688068012303FA00F0885005
:1030A000704700002DE9F04F89B0FDF789FCFDF76E
:1030B00051FCFDF7A3FCFDF777FC4E48FEF71DFA27
:1030C0004D4D4E484E4B00240021002200946E6866
:1030D000B0474C480121002200230094B0474A4CDD
:1030E0004A48A168884708B149A017E02169022031
:1030F000884708B14EA011E0A26A02200221904741
:1031000008B154A00AE00DF123003F490022182322
:10311000009002A8FEF7E6FA38B15848FEF7EDF93C
:103120004FF0FF3009B0BDE8F08F9DF82310A1F1FA
:103130008400042808D8DFE800F0030C050305002C
:10314000514807E04F4805E0622902D14C4862210E
:1031500000E04EA0FEF7D1F902AC5349534A204695
:10316000FEF703FB52492046FEF790FA20B10146D4
:103170005048FEF7C2F9D3E74F48FEF7BEF92E6973
:103180004E4D4F4FDFF840B1DFF840814FF000095E
:103190000DF1080A0DF11D04287828B3194885F8A7
:1031A0000090B047504639462246FEF7C7FAF8B9B4
:1031B000BDF91D10BDF91F20BDF921305846FEF79D
:1031C0009CF998F800000028E6D0B8F80200411EEB
:1031D0000028A8F80210DFD13D48FEF78EF9FEF76F
:1031E00025F988F80090D7E73048FFF773FAD3E75E
:1031F000344893E783340000F03200000C00FF1FD6
:103200005D2F00002800FF1F0C3300004D19000047
:103210000D0A2049324320496E697469616C697AEC
:103220006174696F6E204661696C65640D0A000007
:103230000D0A2049324320506F776572204D6F642C
:10324000652073657474696E67204661696C656496
:103250000D0A00000D0A2049324320436F6E74723C
:103260006F6C204D6F64652073657474696E6720A0
:103270004661696C65640D0A00000000CD350000F0
:1032800046350000D03400000C3500000D0A204205
:1032900061642057484F5F414D5F49203D203078A1
:1032A00025580D0A00000000C526000000E0074078
:1032B0004433000082350000EF350000D200FF1FCC
:1032C0005433000070340000B63500000000FF1FCA
:1032D00030340000F1EE100A4FF6FF71C0F2C03139
:1032E00020EA010040F04070E1EE100A7047000053
:1032F0006D2F0000B92F00007D300000652F000009
:10330000853000008D3000006D300000512200003B
:103310004B22000001190000251900001D190000B2
:1033200041190000351900006D19000065190000F1
:10333000E9180000E1180000F918000000600640DC
:10334000C118000015000006170090F020008080D2
:10335000FFFF000004000600FFFF0000060034101D
:1033600007003410070200000000000000031000F6
:1033700000127A000004800000A0064000B0064061
:1033800000C006401400160018001A001C001E00A1
:10339000220028001C002000240028002C003000FF
:1033A0003800440030003800400048005000580009
:1033B0006800800050006000700080009000A00055
:1033C000C000F000A000C000E000000120014001AA
:1033D0008001E00140018001C00100024002800242
:1033E0000003C00380020003800300048004000582
:1033F0000006800700050006000700080009000A13
:10340000000C000F181900000090044000A00440B8
:1034100000B0044000C0044000D004400A00341052
:103420000B0034100C0034100102000000002301D6
:103430000D0A205370656369666965642073616D68
:10344000706C65732070726F6365737365642C2094
:10345000707265737320616E79206B657920746F6B
:1034600020636F6E74696E75652E2E2E200D0A0016
:103470000D0A2052656164204661696C65642E20E6
:103480000D0A000D0A20495353444B2046584C5313
:10349000383937342073656E736F722064726976C1
:1034A0006572206578616D706C652064656D6F6E06
:1034B0007374726174696F6E207769746820696EC5
:1034C00074657272757074206D6F64652E0D0A00DC
:1034D0000D0A205375636365737366756C6C792090
:1034E000496E697469616C697A65642054696D61BB
:1034F0006E64726120776974682057484F5F414D50
:103500005F49203D20307825580D0A000D0A2053D0
:1035100075636365737366756C6C7920496E697445
:1035200069616C697A65642047656D696E692077A9
:103530006974682057484F5F414D5F49203D2030F6
:103540007825580D0A000D0A20537563636573735F
:1035500066756C6C7920496E697469616C697A650D
:1035600064204E6577737465696E2077697468208E
:1035700057484F5F414D5F49203D20307825580D19
:103580000A000D0A2046584C533839373420536509
:103590006E736F7220436F6E6669677572617469CE
:1035A0006F6E204661696C65642C20457272203D07
:1035B0002025640D0A000D0A20583D253564205948
:1035C0003D253564205A3D2535640D0A000D0A203D
:1035D00053656E736F7220496E697469616C697AA4
:1035E0006174696F6E204661696C65640D0A000D37
:1035F0000A205375636365737366756C6C7920413B
:1036000070706C6965642046584C533839373420E3
:1036100053656E736F7220436F6E66696775726172
:1036200074696F6E0D0A0000483600000000FF1F2D
:10363000700000004C040000B83600007000FF1F4E
:10364000C80500006804000001003100008000008F
:1036500000093D0040F00F4000A0044010000000B1
:10366000000001003C0000000A00381001000000CA
:1036700000F00F4000900440020000000400000031
:103680003B0000000900381000000000000040016D
:103690000100000000000000000000000900000020
:1036A000D9040000D90400003C330000A800FF1F2B
:0836B000000000000000000012
:04000005000004B142
:00000001FF
