:020000040000FA
:1000000000000120B5030000090400000D040000F9
:100010001104000015040000190400000000000095
:100020000000000000000000000000001D040000AF
:10003000210400000000000025040000AD240000A1
:100040002D040000310400003504000039040000D4
:100050003D04000041040000450400004904000084
:100060004D04000051040000550400005904000034
:100070005D040000610400006504000069040000E4
:100080006D04000071040000750400007904000094
:100090007D04000081040000850400008904000044
:1000A0008D040000910400009504000099040000F4
:1000B0009D040000A1040000A5040000A9040000A4
:1000C000AD040000B1040000B5040000B904000054
:1000D000BD040000C1040000C5040000C904000004
:1000E0000000000000000000000000000000000010
:1000F0000000000000000000000000000000000000
:1001000000000000000000000000000000000000EF
:1001100000000000000000000000000000000000DF
:1002F000000000000000000000000000FFFFFFFF02
:1003000000F002F800F03CF80AA090E8000C8244EB
:100310008344AAF10107DA4501D100F031F8AFF2C8
:10032000090EBAE80F0013F0010F18BFFB1A43F0D3
:1003300001031847D42A0000F42A0000103A24BF11
:1003400078C878C1FAD8520724BF30C830C144BF3A
:1003500004680C607047000000230024002500267C
:10036000103A28BF78C1FBD8520728BF30C148BF18
:100370000B6070471FB502F0E7FB1FBD10B510BD45
:10038000DFF80CD0FFF7F6FF02F0B8FA00F0ECF956
:100390000000012003B4FFF7F1FF03BC00F0EEF909
:1003A00000ED00E00008004004080040080800409C
:1003B000FF0F240C104E0024012530680168090944
:1003C000328A0A40738A934200D12C4670680368CF
:1003D0002B40634000D10AE0B0680268002A03D0D5
:1003E000F06801688D461047AD4630BFFDE7034811
:1003F0008047034800470000A0030000BD24000020
:1004000001030000FFF7FEBF3048004730480047B7
:1004100030480047304800473048004730480047E0
:1004200030480047304800473048004730480047D0
:1004300030480047304800473048004730480047C0
:1004400030480047304800473048004730480047B0
:1004500030480047304800473048004730480047A0
:100460003048004730480047304800473048004790
:100470003048004730480047304800473048004780
:100480003048004730480047304800473048004770
:100490003048004730480047304800473048004760
:1004A0003048004730480047304800473048004750
:1004B0003048004730480047304800473048004740
:1004C00030480047304800473048004709040000E2
:1004D0000D040000110400001504000019040000C0
:1004E0001D0400002104000025040000AD240000CC
:1004F00005040000250C000001110000211100007E
:1005000005040000050400000504000005040000C7
:1005100005040000050400000504000005040000B7
:100520000504000005040000850E0000990E00007F
:10053000AD0E0000C10E0000D50E0000E90E000057
:10054000FD0E0000110F000005040000050400006E
:100550000504000005040000050400000504000077
:100560000504000005040000050400000504000067
:100570000504000005040000050400000504000057
:100580000504000005040000050400000504000047
:1005900053EA020C00F069802DE9F04B4FF00006A1
:1005A000002B1FBFB3FA83F503FA05F424FA05F60E
:1005B0005E4012BF1643B2FA82F502FA05F4C5F1A5
:1005C00020051EBF22FA05FC44EA0C04203556EA39
:1005D000044C4FEA144418BF641C4FF000084FF05D
:1005E0000009904271EB030C39D3002919BFB1FA0D
:1005F00081F701FA07F6B0FA80F700FA07F6C7F1BB
:1006000020071EBF20FA07FC46EA0C062037B6FB7F
:10061000F4FCA7EB0507103F07F01F0BCBF12006FA
:100620002CFA06F60CFA0BFB44BFB3460026202F2B
:10063000A4BF5E464FF0000B5BEA060C08BF4FF00C
:10064000010B19EB0B0948EB0608ABFB027C06FB20
:1006500002CC0BFB03CCC01B71EB0C01C1E70B46BA
:10066000024641464846BDE8F08B13B5084318BF23
:100670004FF0FF300146AFF30080BDE81C407047EB
:1006800010B5431C02E010F8011B71B18107FAD1CB
:100690004FF0013202C88C1A8C4314EAC211F9D00F
:1006A000C01A0A0603D0C01E10BDC01A10BD0A042D
:1006B00001D0801E10BD0902FCD0401E10BD01B546
:1006C00001F0FF03114643EA032242EA024200F02E
:1006D0002AF801BD4FF0000200B513469446964635
:1006E000203922BFA0E80C50A0E80C50B1F1200145
:1006F000BFF4F7AF090728BFA0E80C5048BF0CC0F3
:100700005DF804EB890028BF40F8042B08BF704750
:1007100048BF20F8022B11F0804F18BF00F8012BC2
:1007200070474FF000020429C0F0128010F0030C53
:100730003FF4D2AFCCF1040CBCF1020F18BF00F8AB
:10074000012BA8BF20F8022BA1EB0C01FFF7C4BFBF
:100750005FEAC17C24BF00F8012B00F8012B48BFE1
:1007600000F8012B7047704710B50446AFF30080C6
:100770002046BDE81040FFF70DBE000001491820DB
:10078000ABBEFEE726000200B0B50E4810210160A6
:10079000E64800F0D7F90C4C204600F045F8E54D4E
:1007A000284601F05BFB284600F090F9284600F04F
:1007B000C9F901F0A3FA04F5407000F035F80348D8
:1007C0000560B0BD30060040001110002000002080
:1007D00080B5074801F0DEFB002000F09BF80346DF
:1007E00000204FF4E1310122BDE8804000F096BACC
:1007F0000B00010005484FF40051016040F28111E7
:10080000C0F8E01D02480160704700BF20020040B0
:10081000041000400348072101606FF07F414160F0
:10082000704700BF10E000E0B0B5B0F1004F00D15C
:10083000B0BD124A274B00210129F9D80028F7D072
:10084000040509D0C0F30325C4B2013DEDB21C2C50
:1008500014BF43F8245015600131000BECE700BFD2
:100860000648006800F00300012802D018B900F023
:1008700007B8CC4870470020704700BF20000440F4
:1008800014484168032904BF4FF40040704702290F
:1008900011D071B9016889B10168012909D00168D5
:1008A000022908BF00F0D8B80068032808BF00F08C
:1008B000A9B800207047674800687047D0F89003D7
:1008C000C0064FF000005CBF41F60030C0F2B70038
:1008D000704700BF800200400D480168032984BFB3
:1008E00000207047DFE801F00211040FFFF7C8BFD6
:1008F000D0F82803C0064FF000005CBF41F600307E
:10090000C0F2B700704700F07DB8524800687047E9
:10091000E80200400E4951F820200020042A0ED899
:10092000DFE802F0030E100D1300D1F86003C006DB
:100930004FF000005CBF41F60030C0F2B7007047D6
:1009400000F060B843480068704700F043B800BF4B
:10095000B002004080B501460020092913D8DFE825
:1009600001F0050913171223262A2E32BDE8804014
:10097000FFF786BFFFF784FF15490122096852FA85
:1009800081F1B0FBF1F080BDBDE8804000F03AB8E5
:100990000F48D0F89002C0064FF000005CBF41F64F
:1009A0000030C0F2B70080BD2A48006880BDBDE8B5
:1009B000804000F03BB8BDE8804000F04DB8BDE895
:1009C000804000F007B8BDE88040FFF749BF00BF96
:1009D0008003004010B50A4C2068C0B2FF281CBF3D
:1009E000002010BDFFF778FF216803020A0A0121E9
:1009F00061F31F22010E18460023FFF7C9FD10BD49
:100A0000A00300406A48D0F81011C90602D401685A
:100A1000490001D4002070470068400462485CBF70
:100A200046F60040C0F2DC20704700BF10B5084C0D
:100A3000206830B1074821680068012918BF0020EC
:100A400001E0FFF7DFFFD4F8F01001F07BB900BF41
:100A5000A8020040640300200B48D0F80811C90226
:100A600044BF002070470168006808A2C0F344102A
:100A7000105C4CF2503250433E2202EA41010231F6
:100A8000B0FBF1F0704700BF0805004000080C0FF4
:100A90001214181A1C1E2022242628292A2C2D2E36
:100AA00030313234353638393A3B3C3D064B1AB199
:100AB0004FF0005243F820204A1E002908BF4FF093
:100AC000804243F82020704700030040354A164911
:100AD000904203D8086820F4704018E0144A90420D
:100AE00002D80868012210E0304A904202D8086813
:100AF00002220AE0104A904202D80868032204E069
:100B00000E4A904205D80868042262F30F3008604C
:100B100070470A680A4B22F4704298428CBF42F434
:100B2000C04042F4A040F2E700040040001BB700C0
:100B300000366E01006CDC0200A24A0400BD010513
:100B400000E1F505B0B51749884207D0164988423B
:100B500004D0164988421CBF0120B0BD14491022A0
:100B6000144BC1F8302198420A680DD30E4D124B38
:100B7000124CC2F30062A8420AD12068184040EA31
:100B800002600F4A104309E0086820F0804005E049
:100B90006069184040EA026000F1404008600020AF
:100BA000B0BD00BF001BB70000D8B805006CDC0268
:100BB00000050040011BB700FF3FFF0030040001AB
:100BC000004000C070B5002400F8014B0C6872B101
:100BD00014B300211CB394FBF3F202FB1344002C6A
:100BE00000D564423034445401311446F2E79CB1DC
:100BF00004995722002918BF372200217CB1B4FB89
:100C0000F3F5164605FB13440A2C38BF302634444E
:100C1000445401312C46F1E730210170012108468E
:100C200070BD000080B5064800F01AF8BFF34F8F82
:100C300080BD00BF0249401A18BF0120704700BFA5
:100C40000020084080B5FFF7F5FF00226FF0130188
:100C5000143182424FF00102FAD3084680BD0000F1
:100C60002DE9F843FFF7EEFF234900264FF0010876
:100C700001EB8009142E08BFBDE8F88359F826401F
:100C8000C4B3207B00F01F01400908FA01F7A168F6
:100C900001F1580252F820301F420BD042F8207068
:100CA00025683DB16168204601220023A847207BCA
:100CB000A168400901F1600252F820303B420BD09C
:100CC00042F8207025683DB1616820460122012369
:100CD000A847207BA1684009403151F820203A42C2
:100CE00008D041F82070256825B1616820460022AF
:100CF0000223A8470136BDE714030020E0B5002019
:100D00008DF807000DF1070000F07CF89DF8071042
:100D10000028D8BF4FF0FF3108468CBD10B588B011
:100D20008DF80E00002048F641748DF81820CDE9AA
:100D30000031ADF80C001348012AADF81A400290BA
:100D40001CD1474C684600212022079004F108007E
:100D5000FFF7B5FC04F10C00A06004A901F082FAD1
:100D6000207804F12001A06801F0A8FAA06804F13D
:100D7000240101F08CFAA168616001E043F2215086
:100D800008B010BD000001012DE9F0411C4690465D
:100D90000E4607460025A542A8BFBDE8F081316890
:100DA000A1F17F0010F1810F04D8384600F046F819
:100DB0000021316007F80180013530680130306072
:100DC000E9E7000083B0B0B5A1B0044625A80EC085
:100DD00080216846FFF77EFC2148406848B16D4697
:100DE000074B25A900F0C5FF0146284600F026F86C
:100DF00000E0002021B0BDE8B04003B0704700BF64
:100E0000890D000010B516494FF0FF34496821B133
:100E100000F006F8002808BF0124204610BD00BFDE
:100E2000B0B50F4D01460122012405F1240001F067
:100E300058FA08B9287800242046B0BD10B50C46F1
:100E400001460748426842B12030224601F053FA79
:100E5000002818BF4FF0FF3400E00024204610BDEA
:100E6000A800002010F180010AD0002808D400F06A
:100E70001F010122400902FA01F1C24A42F8201082
:100E8000704700BF80B564480268016A0148904716
:100E900000F05EBF0060084080B55F484268416A6C
:100EA0000148904700F054BF0070084080B55A4890
:100EB0008268816A0148904700F04ABF008008407C
:100EC00080B55548C268C16A0148904700F040BFEC
:100ED0000090084080B550480269016B0148904776
:100EE00000F036BF00A0084080B54B484269416B16
:100EF0000148904700F02CBF0060094080B546488B
:100F00008269816B0148904700F022BF0070094060
:100F100080B54148C269C16B0148904700F018BFD5
:100F2000008009400146002004A2082805D052F89C
:100F300020308B4201D00130F7E770470060084055
:100F400000700840008008400090084000A0084061
:100F5000006009400070094000800940B0B50C46AF
:100F60000546FFF7DFFF18A1012331F81010CAB2C0
:100F7000090A03FA02F2184B43F8212017A151F88D
:100F8000200001F007F87CB1042C05D8D5F8F80F43
:100F9000E040000708D405E0052C03D1D5F8F80F90
:100FA000000601D40320B0BDD5F8F80F000707D51F
:100FB000D5F8F80F00F00700A0421CBF0120B0BD1B
:100FC0000020C5F8F84FB0BD0B010C010D010E015A
:100FD0000F01100111011201200200400B0001005D
:100FE0000C0001000D0001000E0001000F000100C7
:100FF000100001001100010012000100B0B51446FC
:101000000D46FFF78FFF044941F8205001EB8000A7
:101010000462BFF34F8FB0BD68000020BFB5B8B108
:101020000D46A9B10446007C012813D1628AE0680C
:1010300000210123CDE9001300F0A4FE30B9628A3B
:10104000E06821462B4601F0E6F830B1042002E0CA
:10105000012000E0032004B0B0BD628AE0680021F6
:101060000123CDE9003300F08DFE002818BF0120D8
:101070008000F0E72DE9FF41044600208DF80F00C5
:10108000D4B101200E46F1B100270DF10F012272FB
:101090001D461A46DDF828801323C4E90077CDE900
:1010A00000013046214600F09BFF9DF80F1088F8A4
:1010B000001018B1022005E0012004E00020012703
:1010C0006582E660277404B0BDE8F0811CB590B17C
:1010D0000B4681B17AB10146007C01281CBF032078
:1010E0001CBD4C8AC8680092224601F071F80028A5
:1010F00018BF05201CBD01201CBDC0E900127047AF
:1011000080B50648016841F001010160444800686B
:1011100000B18047BFF34F8F80BD00BF002000406B
:1011200080B50648016841F0010101603C48406813
:1011300000B18047BFF34F8F80BD00BF003000403B
:1011400000EB8100026203647047000010B50446A2
:1011500000F022F82168012841F0010121600ED839
:101160000749084A01240856410900F01F0002EB14
:10117000810304FA00F0C3F8800142F8210010BD99
:101180000C2C000000E100E000EB8100016A11601E
:10119000006C1860704700000146002004A202287D
:1011A00005D052F820308B4201D00130F7E770476C
:1011B000002000400030004080B5FFF7EDFF1849E7
:1011C0000022012841F820200C4931F8101008D8DD
:1011D000CAB20123090A03FA02F2694B43F821203B
:1011E00005E0C9B2012202FA01F11A4A116004496C
:1011F00051F82000BDE8804000F0CCBEF02B00008C
:10120000F42B0000F8B500F0A6FD054941F8204098
:10121000022000EA460065F382003860F8BD00BF96
:10122000680300200AA1012831F8101008D8C8B2BC
:101230000122090A02FA00F0514A42F821007047DF
:10124000C8B2012101FA00F002490860704700BFEE
:101250000E000F0014000440F8B5074608461D466E
:1012600014460E46FFF7DEFF287888B16A7807EB50
:10127000860000F50851002A08BF00F50A51012236
:10128000A2400A604FF4005143581A434250F8BD3F
:1012900007EB86014FF4005201208B58A04023EA4F
:1012A00000008850F8BD000070B586B001AE04465D
:1012B0000D46304601F015F90020ADF81100D5E9D2
:1012C00000200190A87A002818BF01208DF80C009A
:1012D000E87A002818BF01208DF80D00287A014611
:1012E000032818BF0021022808BF0146687A8DF83C
:1012F000081016490138B0FA80F040098DF809004D
:10130000A87B51F82000314601F0FCF810B142F6FC
:10131000AF7002E0A87B2070002006B070BD00BF57
:1013200080B50078094B53F8200001F074F90028CB
:1013300018BF42F6AF7080BD80B50078034B53F8FC
:10134000200001F002FA002080BD00BFD02B000079
:101350000B484FF4005101600A48724600F0D3FC7C
:10136000964670470320FFF7F5BA000004484FF493
:1013700000510160034840F28111016041607047F3
:101380002002004064100040224A00F061B800BF13
:10139000204800F0BDB800BF1E4800F0C3B800BF31
:1013A00010B50446FFF7E2FF1A48017BC90702BFE8
:1013B000012101738460002010BD00BF154900F0B9
:1013C000DAB800BF80B5FFF7C3FF124800210173F0
:1013D000002080BD1CB50F4C009400F0CBFA1CBD62
:1013E0001CB50C4C009400F0EFFA1CBD01281CBF8A
:1013F0000249086102480121017170472400002060
:101400000C010020034A00F031BC00BF014A00F08B
:1014100043BC00BF4C0000200146002004A2082865
:1014200005D052F820308B4201D00130F7E77047E9
:1014300000600840007008400080084000900840AC
:1014400000A0084000600940007009400080094089
:10145000B0B5144604282BD00D46022816D001281A
:1014600023D12068406880472849EAB2002300253C
:10147000B0FBF1F120680068C0F81418002100F0FA
:10148000FBFA20680068C0F8585837E0013D022D8B
:101490000BD82068D0E900408047024618A050F8D9
:1014A0002510204600F09EF818E06FF0030525E0B7
:1014B00020680068D0F80018C9070BD0616800F0F8
:1014C000EBF86068002141606068C1626068016398
:1014D00020680068D0F80018890701D400250DE0C5
:1014E0006168002591F82520022A07D100F0CBFA87
:1014F0006068C561606805616068C5602846B0BD08
:10150000A0860100801A060040420F0000093D003D
:1015100001680968D1F800184068C9070CBFC069A4
:101520004068704710B501680B68D3F80428D3F8F9
:101530000018C90701D100210AE0446802F0110136
:1015400094F8214004F0010441EA840181F0030190
:10155000D3F800389B070CD54068C2F3002201F095
:101560001801114490F82500022808BF043181F0C9
:101570000101084610BDB0B50C46022814D010BBBE
:10158000207B80071DD50420002122460025FFF77F
:101590005FFF2068006800F01DF82068006800F018
:1015A00046FA0120207313E0207B78B1800708D42D
:1015B000206803210068FFF7D1FC207B40F0020087
:1015C0002073002504E06FF0030501E04FF0FF35C4
:1015D0002846B0BDD0F8001801F01E01C0F8001870
:1015E000704700002DE9F04302EB82034FF00A0C34
:1015F0004FF000084FF0000E4FEA4309254BB9FBAE
:10160000F3F30533B3FBFCF5B2FBF5F3B3FBF1F3F6
:10161000032B9CBF9308B3FBF1F505FB01F70023F7
:10162000B5F5803F14D8B9FBF7F40534B4FBFCF6EC
:10163000122E28BF122607FB16249C4200D313B992
:101640002346B046AE461CB101350F44042EE7D800
:10165000AEF101014FF0FF3218F0010389B2C0F87A
:1016600014186FF0010101EB58010C4618BF02EB92
:10167000580404F0070260254FEA5804002B05EBDC
:10168000041408BF0C0104F070011144C0F82418C0
:10169000BDE8F08380841E00B0B50546087890B19F
:1016A00051200C46C5F80C08284600F0B7F910F098
:1016B0000E0F05D00420C5F82008284600F0AEF92A
:1016C0000020207620700020B0BD00002DE9F04100
:1016D000154607460E46084600213C229846FEF76E
:1016E000EEFF3846FFF798FE084904463846324672
:1016F000C6E90D58FFF782FC5120C7F80C08FC48DA
:101700000057BDE8F041FFF7ADBB00BF1117000067
:10171000B0B500295ED00A78072A05D0082A01D181
:101720008B6833B1002305E08B68B3FA83F35B0960
:1017300000E00123D0F80448E50606D465060AD483
:10174000E5071BD140F628220AE01022C0F8042841
:1017500040F62D2204E04022C0F804284FF4236212
:101760005123C0F80C380023D1F834C00B70BCF101
:10177000000F2FD08B6BBDE8B0406047C4F342042C
:10178000032C06D153B90422C0F8202840F6332296
:10179000E6E7251F18BF01252B431CD0531E40F63A
:1017A0003122072BDCD8DFE803F00521353F045454
:1017B0005D69D5E7022C49D10A698B6A9B1A0B44F3
:1017C000013A1B7DC0F828380A614FF00102C0F8C9
:1017D000202861D0B0BD0422C0F8202840F6332272
:1017E0000B7E002B08BF40F62A22B9E70022022C0C
:1017F0000A762BD1D1E902235C1CCC60013A1B781C
:10180000C0F828388A604FF00102C0F8202854D16F
:10181000072051E00022012C0A7617D104220A7019
:10182000D0F82818012126E00022012C0A760DD1DB
:10183000CA68531CCB60D0F8283813708A68013A04
:101840008A6032D00122C0F8202836E040F63122EA
:1018500086E70A69A2B191F820205200C0F8282832
:10186000012235E00B7F00220A765B073FF578AF57
:1018700008220A700421C0F82018B0BD00226FE7CA
:1018800091F8202091F821305200D3B142F00102AA
:10189000C0F82828042217E08868F0B191F82100E8
:1018A0000222012808BF062215E00A7F52075CBF0A
:1018B0000422C0F8202808200870486801304860D9
:1018C000B0BDC0F8282802228B68002B08BF072271
:1018D0000223C0F820380A70B0BD07200870B0BDE0
:1018E000F0B50B7813B140F6282140E05123C0F841
:1018F0000C38D2E90267D2E9004CD2E90453C1E9BD
:1019000009670026C1E9074CC1E90B53E4070E76CD
:10191000C1E90163C1E903560DD18B6AD3B1042B30
:1019200011D8D2E9024201F11303012A10DB9C54C1
:10193000013A240AF9E74BB191F82120012A0DD090
:101940000AB902220BE040F62B210AE0072206E04A
:101950008A6A0A6101220A76062200E003220A70DE
:1019600000215022C0F804285122C0F80828084657
:10197000F0BD00002DE9F04186B000F044FA02D03D
:101980006FF001001CE000F0D0F9234AFFF79EFE43
:101990000020CDE904678DF804806A46CDE9020095
:1019A00001208DF80500002C18BF042400F025FA52
:1019B00000F030FA08BF6FF00100002908BF0846A8
:1019C00006B0BDE8F08100BF2DE9F04186B000F01F
:1019D0001AFA02D06FF001001BE000F0A6F90E4ADF
:1019E000FFF774FE0020CDE904678DF804806A4695
:1019F000CDE902008DF80500002C18BF042400F08A
:101A0000FCF900F007FA08BF6FF00100002908BFD9
:101A1000084606B0BDE8F081D51C0000D0F80418D7
:101A2000CA07FBD05022C0F804280846704700219E
:101A3000C0F800187047B0B50C468968A36A2271D7
:101A4000CBB11546114216D0E26A2146984761692A
:101A5000A06994F8242042B9226902B111B9E16861
:101A600019B110B1012084F82400042D01D0022DF9
:101A700001D10020E061B0BD00EB810062F34703BB
:101A8000C0F8483870474FF40142C0F80C280022D3
:101A9000C0F8002881F824204A618A61704700005C
:101AA0002DE9F843154607460E4608460021302228
:101AB00098464FF00009FEF702FE3846FFF7ACFCEF
:101AC0000A4904463846324686F82590C6E90A583F
:101AD0003660FFF793FA4FF40140C7F80C0804484A
:101AE0000057BDE8F843FFF7BDB900BFF51A000085
:101AF000FC2B000070B5D0F8046804460D46300495
:101B000008D5204629464022FFF795FF4FF40040B4
:101B1000C4F80408F00500D470BDC6F34120F8B144
:101B200095F8251003292CD00229F5D101284FD191
:101B3000A869E96801B108B900F038F9A869E9684D
:101B4000D9B3D0B30120C4F84008D4F84408E968F8
:101B50000870A8690138A861E8680130E86029E0E8
:101B6000D4F844086871C00736D1A869E96801B1A2
:101B700008B900F01BF9A969E868E0B30220B1BB1D
:101B80003AE0022824D16869296901B108B900F056
:101B900024F96869296981B178B128690078C4F8A5
:101BA00044080120C4F84008686901386861286960
:101BB00001302861E8690130E861A8696969084372
:101BC000AAD100202946202285F82400204618E0CA
:101BD0000220C4F8400870BD6869296901B108B9DC
:101BE00000F0FBF86869296929B120B1032085F864
:101BF0002500012000E00220C4F8400820462946C4
:101C00000122BDE87040FFF716BFF8B5002302922D
:101C10000022CDE90033002300F002F804B080BDBB
:101C2000B0B54FF40145C0F80C5891F824400A6152
:101C3000049A4B61CA60059A8A610022CA61069AB9
:101C400042F006028A60012281F824200221C0F8B5
:101C50000018002CD0F80418C0F80418C0F8085870
:101C600018BF40F628242046B0BD000070B500F033
:101C700093F8144AFFF714FF00F0B9F861680022E6
:101C8000CE6061688D6100F0A0F808BF6FF00102BE
:101C9000002818BF104670BD70B500F07DF8094AE5
:101CA000FFF7FEFE00F0A3F8616800220E61616894
:101CB0004D6100F08AF808BF6FF00102002818BFDC
:101CC000104670BDED1C00000020704700487047B2
:101CD000040202024BB140F62D2102208A4208BFC5
:101CE0004020002A08BF012018477047097922B117
:101CF0000220202908BF0120104770472020012121
:101D00000022FEF7D3BE016841F0800121F00701F7
:101D10000160416841F0800121F007014160704796
:101D2000D9F8282004200021104728681C461746AF
:101D3000AB680068D0F8002802F01E020132C0F83B
:101D400000287047012252FA81F1B0FBF1F010BD7A
:101D5000BFF34F8F80BD1C4615460E460746FFF762
:101D60001BBA4FF41650B0FBF1F04143B1F5165FCA
:101D7000704720462A46209100F0CEBA28464946B0
:101D80000123204702912146152300F083B93954DD
:101D900001214AF8201070470D46064692E80B00D4
:101DA000144602220068C0F80028704720462946E1
:101DB0000422FFF740BEABEB000328464946202231
:101DC0002047207A395C002970476168CA6140F673
:101DD00028214FF0FF3288427047204629460222D0
:101DE000FFF729BEDBF82820042000211047D4E9A2
:101DF000000120220068FFF708BFD5E90001009428
:101E00000068FFF76DBD0C9D0E4680466968087836
:101E100000287047014640F628224FF0FF309142DB
:101E2000704700000148002100F0ACBC00200040D9
:101E30000148012100F0A6BC00300040EFF3108003
:101E4000EFF3108172B604490A6822F004020A60B6
:101E500030BF80F31088704710ED00E02A492B4A0C
:101E60000B23C1F830222A4A536093601361294B37
:101E7000984206D806201060D060086820F47040B0
:101E800023E0254B984204D807201060D06001223F
:101E900018E0224B984201D8082003E0204B9842DA
:101EA00004D809201060D06002220BE01D4B98423C
:101EB00001D80A2003E01C4B984208D80B20106080
:101EC000D0600322086862F30F3008607047174B38
:101ED000984204D80B201060D0600422F2E7144B23
:101EE000984201D80C2003E0124B984205D80D20EF
:101EF00010609060D0600522E4E70E2010609060D2
:101F0000D0600622DEE700BF000400400400003875
:101F100000000240001BB70000366E010051250290
:101F2000006CDC020087930300A24A0400BD010597
:101F300000D8B80500E1F505F8B5DDE906671C46EF
:101F4000431A1546202230463946A0472A782AB13E
:101F5000304639460123A047013DF7E7F8BD0000B0
:101F6000012281B202FA01F1B0F5003F06D31B480D
:101F7000816002680A409142FBD009E0164A000CD9
:101F800002EB8003196452F820300B409942FAD0DA
:101F9000704700BF10B5044600F006F82046BDE8C3
:101FA0001040FFF7DDBF0000012281B202FA01F10B
:101FB000B0F5003F05D30948416002680A42FCD0F1
:101FC00008E0054A000C02EB8003196252F8203049
:101FD0000B42FBD0704700BF0001004000000440EE
:101FE0002DE9F84F8346087A724F0C460021DFF83E
:101FF000C8A11646FFF7CBFE8DF8033010460DF151
:10200000030101220123DBF81450A84708B1BDE801
:10201000F88FDDE90A98FFF7D4FE06D12168002980
:102020000EBF00BF60688847F5E75AF82010022904
:1020300002D1FFF7D7FE207A5AF8201001291CBFE1
:102040004FF0FF30BDE8F88F00214A460023FFF72C
:102050009EFE30464146DBF81850A8470028D6D1EE
:1020600005E0216800290EBF00BF60688847FFF7C0
:10207000A8FEF6D05AF82010022902D1FFF7B2FECE
:10208000207A5AF82000013818BF4FF0FF30BDE821
:10209000F88F00BF2DE9F84F0C46DDE90AB80021A2
:1020A000814616468DF80230207A8DF80310B8F17B
:1020B000000F4ED03F4FDFF800A101220123FFF7B0
:1020C00066FE0DF102013046D9F81450A84708B158
:1020D000BDE8F88F0DF10200451CFFF772FE06D136
:1020E000216800290EBF00BF60688847F5E75AF8ED
:1020F0002010022902D1FFF713FE207A5AF820108F
:10210000012953D1002101220023FFF740FE294677
:102110003046D9F81850A8470028D9D105E02168E1
:1021200000290EBF00BF60688847FFF74AFEF6D05F
:102130005AF82010022902D1FFF7F2FD207A5AF84E
:102140002010012932D19DF8031021EA08014BEA41
:10215000010B184F0021DFF860800C9B02223954DC
:10216000012148F820100DF1020130468DF803B02E
:10217000D9F81450A8470028AAD105E02168002901
:102180000EBF00BF60688847FFF71BFEF6D058F807
:102190002010022902D1FFF7C3FD207A58F8200051
:1021A000013818BF4FF0FF30BDE8F88F4FF0FF3017
:1021B000BDE8F88F0C0100202400002080B5FFF757
:1021C0003DFE002080BD80B5FFF738FE002080BDB9
:1021D0002DE9FC41B0B1ABB1089F9FB190460D46CF
:1021E00006469C1C207880B114F8023CCDE900071B
:1021F000304629464246FFF7F3FE48B914F8040B6F
:102200000744EFE70220BDE8FC810020BDE8FC8127
:102210000520BDE8FC812DE9FE4300B3FBB19046EB
:10222000894606469F1C4FF6FF747D88281B18BF01
:10223000012039787A7817F8023C02903046CDE9CF
:10224000001249464246FFF725FF10B90437A54260
:10225000EBD1002818BF01208000BDE8FE830220DA
:10226000BDE8FE83B0B50C46002114220546FEF7FA
:1022700026FA207A012828701CBF43F22150B0BDF5
:10228000E16805F10C00BDE8B04000F03EB8F8B5DB
:10229000EFF3108772B60646406810B143F222543D
:1022A00008E00D4671600846002104220024FEF774
:1022B00006FA2E6087F310882046F8BDB0B50546B3
:1022C000EFF3108072B60C460422A9680131A960B0
:1022D000002180F310882046FEF7F1F900202560E8
:1022E000B0BD00680378012B1CBF43F2215070473A
:1022F0000C3000F00CB800680378012B1CBF43F2CF
:10230000215070470C3000F004B8FEF7CDBFFFF746
:1023100007B8FFF711B800002DE9F04F8FB007465E
:1023200000201C4615468A4601260DF11409059029
:1023300003903A78002A00F0B380252A03D0FFF7F3
:102340001DFD0137F5E700204FF0000B3A4600066F
:1023500012F8011F11D1A1F130000A2838BF174629
:102360000BEB8B0201EB420138BFA1F1300B0928C6
:102370004FF0000088BF0120E8E72E2906D1B97888
:10238000781C074630390A29F9D300E03846471C43
:1023900017F8012B02F0FB006828F9D0692A01D058
:1023A000642A15D15AF8040B00960DF11B06012280
:1023B0000A230490304604A9FEF704FC32180146B3
:1023C00058462346CDE900590126FFF7B5FDB0E791
:1023D00002F0DF00582808D0462820D10AF1070073
:1023E00020F0070000F1080AA3E7DAF800000DF179
:1023F0001B060390B2F1780018BF0120009003A9DA
:10240000002210233046FEF7DDFB8046FFF7D3FCA9
:1024100046443278C2B1FFF7B1FC013EF9E7A2F1C0
:102420006200132839D8204B06FA00F119420FD068
:102430005AF8040B702A039023D06F2A23D0622A03
:1024400014BF0A2302231FE00AF1040A012670E7E1
:10245000012820D0112820D15AF8048BB8F1000FA0
:102460003FF467AF4046FEF70BF9FFF7A4FC98F87E
:102470000020002A3FF45DAFFFF780FC08F101085F
:10248000F5E7102300E0082300960DF11B0603A9D1
:102490000022304690E71AF8042BFFF76FFC48E75C
:1024A00005980FB0BDE8F08F016008000248016890
:1024B00001310160704700BF600000200648D0F87D
:1024C000801041F47001C0F8801004490160F648A2
:1024D0001021016000F004B808ED00E000000000E9
:1024E0007047B0B50021142204460025FEF7E7F836
:1024F0004FF480304FF4E1312574C4E90255C4E94A
:102500000010B0BDF8B548B10D4639B116462AB134
:1025100001210446FEF722FD10B1F8BD0420F8BDEC
:10252000687AD0B1D4F8000E40F00110C4F8000E63
:10253000D4F8080E20F47060C4F8080E687BD4F854
:10254000081E00F00F0041EA0020C4F8080ED4F87D
:10255000080E40F00100C4F8080E287AD0B1D4F873
:10256000000E40F00210C4F8000ED4F8080E20F45B
:102570007020C4F8080EA87BD4F8081E00F00F00E5
:1025800041EA0040C4F8080ED4F8080E40F00200FA
:10259000C4F8080EEA7A287B3023D10141EA4020B2
:1025A000297903EA01116B7963F38611AB7903F0A2
:1025B000030341EA8301EB7941EAC331EB7B03F08A
:1025C000020703F0010341EA872141EA83312B7CB2
:1025D00003F0010341EA0331084340F001002060A9
:1025E00029683AB1FFF7BDFB1CBF41F25160F8BD4D
:1025F000206205E02046324600F04CF800288CD1DD
:10260000A87A616821F48071002818BF01F58071F3
:1026100000206160F8BD70B530B129B1D0F8003E3E
:102620009B0704D4012300E00423184670BD41F247
:102630005064F2B1D0F8043E5B06FBD5D0F8043EFE
:102640009B0718D4856883682B436E048360AB04B2
:1026500041F24F6358BF04EAE6732D0448BF41F2CC
:102660004E63002BE1D1D0F8303E013A01F8013B36
:10267000DFE70023D9E7D0F8001E41F24D6341F4B3
:102680000031C0F8001ED0F8041E41F00201C0F86D
:10269000041ECAE72DE9F04760B359B352B303688B
:1026A0001B052AD402EB82030D014FF00F0C4FF0F3
:1026B000FF394FF00A0E4FF0FF380F274FEA430A59
:1026C000082F22D3BAFBF5F3053B5C0C042C0ED883
:1026D000B3FBFEF47B1C661C7343B2FBF3F68B1B4F
:1026E00038BF731A4B453EBF9946BC46A0466D1A8B
:1026F000013FE5E70420BDE8F08703685B0421D5CE
:10270000B2FBF1F1A1F101081AE00CF1010308F1AB
:1027100001046343B2FBF3F28B1A38BF531A6422ED
:10272000B1FBF2F101EB41018B4203D80021B1EB87
:10273000184F03D041F25160BDE8F087C0F828C0BF
:10274000C0F820800020BDE8F08720B119B1D0F892
:10275000003EDB0701D1042070474AB1D0F8043EA7
:102760009B06FBD511F8013B013AC0F8203EF4E787
:1027700081680907FCD5002070470000EC48012162
:1027800001707047BCB56A4601AB0C46FEF7FCFC15
:102790004748002500EB0424202D08BFBCBD01984C
:1027A000E840C00706D004EBC500416811B154F8F9
:1027B000350088470135EFE7817B0268806802EBCE
:1027C00081014FF40A52885070470000004870475A
:1027D000000202022DE9FC41314D002A04461E464A
:1027E00018BF154680890022B2EB502F08D1C2B223
:1027F0000123000A03FA02F22B4B43F8202005E0E4
:10280000C0B2012202FA00F0264A1060002918BF67
:1028100001212970D4E900022B46A17BFEF71CFDA3
:10282000DEB3A07B012838D8204FDDF8208057F890
:102830002000FEF7C1FCA17B1D48626800EB01206F
:1028400040F8328000EBC2001AA2466052F82130F4
:1028500057F82100AA780021FEF7D4FCA17B01AA39
:102860006B4657F82100FEF78FFCE978A068012934
:10287000019914BF21EA000241EA00020192009985
:1028800041EA0003A17B009357F82100FEF758FCB2
:10289000A07B57F82000FEF759FCBDE8FC8100BF83
:1028A000440000201400044020020040042C0000DA
:1028B00014010020251E0000311E0000817BD0E99C
:1028C000002002EB4111085C7047817B0268806840
:1028D00002EB81014FF4085288507047817B0268F7
:1028E000806802EB81014FF40C5288507047827B64
:1028F000D0E9003003EB4212115470472DE9F04F3C
:1029000089B0FDF777FF584C4FF48670A0474FF41D
:102910008870A04740F21110A047FDF735FFFDF782
:1029200079FFFDF755FF5148FEF74CFA504D5148DD
:10293000514B00240021002200946E68B0474F489C
:102940000121002200230094B0474D4C4D48A1685E
:10295000884708B14CA017E021690220884708B1D8
:1029600051A011E0A26A02200221904708B157A0AD
:102970000AE00DF12300424904221823009002A826
:10298000FEF778FB38B15B48FEF71CFA4FF0FF30DA
:1029900009B0BDE8F08F9DF82310A1F18400042850
:1029A00008D8DFE800F0030C05030500544807E0F1
:1029B000524805E0622902D14F48622100E051A04F
:1029C000FEF700FA02AC564900222046FEF795FBBE
:1029D00054492046FEF722FB20B101465248FEF73B
:1029E000F1F9D3E75148FEF7EDF92D69DFF8409191
:1029F000DFF888804F4E514CDFF844A10DF1080BF1
:102A00000DF11D0799F8000038B3002089F8000087
:102A10004046A847584631463A46FEF757FB00BBAA
:102A2000BDF91D10BDF91F20BDF921302046FEF76C
:102A3000C9F999F801000028E4D1BAF80000411E54
:102A40000028AAF80010DDD13E48FEF7BBF9FEF7DA
:102A500055F9012089F80100D4E70020FFF7B3FB06
:102A6000D0E7354890E700BF29080000612C00003E
:102A7000642B0000000000207D27000010000020D3
:102A8000802B0000ED1300000D0A2049324320493D
:102A90006E697469616C697A6174696F6E204661F0
:102AA000696C65640D0A00000D0A2049324320500C
:102AB0006F776572204D6F64652073657474696EFD
:102AC00067204661696C65640D0A00000D0A2049A3
:102AD000324320436F6E74726F6C204D6F646520BB
:102AE00073657474696E67204661696C65640D0A6C
:102AF00000000000AB2D0000242D0000AE2C0000D3
:102B0000EA2C00000D0A204261642057484F5F41C3
:102B10004D5F49203D20307825580D0A0000000007
:102B2000BD210000B82B0000602D0000CD2D00005D
:102B30005C000020C82B00004E2C0000942D0000EB
:102B4000480000200E2C0000F1EE100A4FF6FF7135
:102B5000C0F2C03120EA010040F04070E1EE100AFE
:102B600070470000CD270000D5270000CB280000CB
:102B7000B9270000DD280000EF280000BD28000074
:102B8000CD1C0000C91C0000A1130000C5130000EB
:102B9000BD130000E1130000D51300000D14000068
:102BA0000514000091130000891300009913000020
:102BB00000A008406513000015000006170090F003
:102BC00020008080FFFF000004000600FFFF0000DF
:102BD00000600840007008400080084000900840F5
:102BE00000A00840006009400070094000800940D2
:102BF0001300130013000000130000000E0F10114B
:102C000012131415002000400030004002030D0A8A
:102C1000205370656369666965642073616D706CCB
:102C200065732070726F6365737365642C207072B6
:102C300065737320616E79206B657920746F2063F2
:102C40006F6E74696E75652E2E2E200D0A000D0AAA
:102C50002052656164204661696C65642E200D0A0E
:102C6000000D0A20495353444B2046584C533839E1
:102C700037342073656E736F722064726976657283
:102C8000206578616D706C652064656D6F6E73741E
:102C9000726174696F6E207769746820696E7465FB
:102CA0007272757074206D6F64652E0D0A000D0AC6
:102CB000205375636365737366756C6C7920496E18
:102CC000697469616C697A65642054696D616E64C8
:102CD000726120776974682057484F5F414D5F49A2
:102CE000203D20307825580D0A000D0A20537563C9
:102CF0006365737366756C6C7920496E697469617C
:102D00006C697A65642047656D696E6920776974BE
:102D1000682057484F5F414D5F49203D203078255E
:102D2000580D0A000D0A2053756363657373667549
:102D30006C6C7920496E697469616C697A6564208C
:102D40004E6577737465696E20776974682057489B
:102D50004F5F414D5F49203D20307825580D0A00D6
:102D60000D0A2046584C53383937342053656E735A
:102D70006F7220436F6E66696775726174696F6EFA
:102D8000204661696C65642C20457272203D2025C7
:102D9000640D0A000D0A20583D25356420593D2553
:102DA0003564205A3D2535640D0A000D0A2053650F
:102DB0006E736F7220496E697469616C697A6174AF
:102DC000696F6E204661696C65640D0A000D0A200A
:102DD0005375636365737366756C6C7920417070AD
:102DE0006C6965642046584C533839373420536534
:102DF0006E736F7220436F6E666967757261746976
:102E00006F6E0D0A00000000282E00000000002058
:102E10005C0000003C030000842E00005C000020E9
:102E2000140300005803000000C008400A0000001E
:102E3000000400000E00000000C008400A0000006E
:102E4000000400000F000100001BB700010000009B
:102E50000000000000000000000000000000000072
:102E60000000000000000000000000000000000161
:102E700031000000B02B0000D00000200000000056
:042E8000000000004E
:04000005000003B53F
:00000001FF
