:020000040000FA
:1000000000000120B1040000DD040000E104000054
:10001000D9040000D9040000D90400000000000049
:10002000000000000000000000000000E5040000E7
:10003000D904000000000000E9040000B5530000EE
:10004000F1040000F5040000F9040000FD040000C4
:100050000105000005050000090500000D05000070
:100060001105000015050000190500001D05000020
:100070002105000025050000290500002D050000D0
:1000800031050000D9040000D9040000D9040000A3
:10009000D9040000D9040000D9040000D9040000EC
:1000A00035050000390500003D0500004105000050
:1000B00045050000490500004D0500005105000000
:1000C00055050000590500005D05000061050000B0
:1000D00065050000D9040000D9040000D90400001F
:1000E000D9040000D9040000D9040000D90400009C
:1000F000D9040000D9040000D9040000D90400008C
:10010000D9040000D9040000D9040000D90400007B
:10011000D9040000D9040000D9040000D90400006B
:10012000D9040000D9040000D90400003D3E0000BD
:10013000513E0000653E0000793E00008D3E00000B
:10014000D9040000D9040000D9040000D90400003B
:10015000D9040000D9040000D9040000D90400002B
:10016000D9040000D9040000D9040000D90400001B
:10017000D9040000D9040000D9040000D90400000B
:1003F000D9040000D9040000D9040000FFFFFFFF6A
:10040000FFFFFFFFFFFFFFFFFFFFFFFFFEFFFFFFFD
:1004100000F002F800F03CF80AA090E8000C8244DA
:100420008344AAF10107DA4501D100F031F8AFF2B7
:10043000090EBAE80F0013F0010F18BFFB1A43F0C2
:10044000010318477065000090650000103A24BF52
:1004500078C878C1FAD8520724BF30C830C144BF29
:1004600004680C607047000000230024002500266B
:10047000103A28BF78C1FBD8520728BF30C148BF07
:100480000B6070471FB505F0E7FD1FBD10B510BD2F
:10049000DFF80CD0FFF7F6FF05F070FC00F04BFA28
:1004A0000000012003B4FFF7F1FF03BC00F04CFA99
:1004B00072B60548054901600A6882F30888044855
:1004C000804762B60348004708ED00E000000000E6
:1004D000C553000011040000FFF7FEBF224800478B
:1004E0002248004722480047224800472248004748
:1004F0002248004722480047224800472248004738
:100500002248004722480047224800472248004727
:100510002248004722480047224800472248004717
:100520002248004722480047224800472248004707
:1005300022480047224800472248004722480047F7
:1005400022480047224800472248004722480047E7
:1005500022480047224800472248004722480047D7
:100560002248004722480047DD040000E104000063
:10057000E5040000E9040000B55300004118000044
:10058000E9180000011900001919000031190000D4
:100590004919000061190000791900009119000043
:1005A000A9190000591800007118000089180000EE
:1005B000A1180000B9180000D1180000D9040000EB
:1005C0008D2600005D2800005D4A0000A14A000061
:1005D000D9040000D90400009D3D00002D54000006
:1005E000D904000061540000D904000095540000B3
:1005F000D904000053EA020C00F069802DE9F04BA9
:100600004FF00006002B1FBFB3FA83F503FA05F481
:1006100024FA05F65E4012BF1643B2FA82F502FADA
:1006200005F4C5F120051EBF22FA05FC44EA0C04BE
:10063000203556EA044C4FEA144418BF641C4FF0AE
:1006400000084FF00009904271EB030C39D30029E8
:1006500019BFB1FA81F701FA07F6B0FA80F700FA8C
:1006600007F6C7F120071EBF20FA07FC46EA0C0672
:100670002037B6FBF4FCA7EB0507103F07F01F0B74
:10068000CBF120062CFA06F60CFA0BFB44BFB3465E
:100690000026202FA4BF5E464FF0000B5BEA060C3D
:1006A00008BF4FF0010B19EB0B0948EB0608ABFB39
:1006B000027C06FB02CC0BFB03CCC01B71EB0C01D4
:1006C000C1E70B46024641464846BDE8F08B13B5EC
:1006D000084318BF4FF0FF300146AFF30080BDE87C
:1006E0001C40704753EA020C23D010B54C1084EA2A
:1006F000530404D54042C1F1000138BF491E1B42DA
:1007000004D55242C3F1000338BF5B1EFFF772FFEE
:1007100014F0804F04D04042C1F1000138BF491E9F
:1007200014F0004F04D05242C3F1000338BF5B1EE7
:1007300010BD13B540424FF0000070EB0104B8BF8C
:10074000012001F0004100281CBF6FF000414FF074
:10075000FF30AFF300801CBD10B5431C02E010F861
:10076000011B71B18107FAD14FF0013202C88C1A16
:100770008C4314EAC211F9D0C01A0A0603D0C01E75
:1007800010BDC01A10BD0A0401D0801E10BD0902A0
:10079000FCD0401E10BD032A40F2308010F0030C44
:1007A00000F0158011F8013BBCF1020F624498BFC4
:1007B00011F801CB00F8013B38BF11F8013BA2F161
:1007C000040298BF00F801CB38BF00F8013B11F0DC
:1007D000030300F05680083AC0F0088051F8043B4B
:1007E000083A51F804CBA0E80810F5E7121D5CBFE9
:1007F00051F8043B40F8043BAFF30080D20724BF1C
:1008000011F8013B11F801CB48BF11F8012B24BFAF
:1008100000F8013B00F801CB48BF00F8012B7047FE
:1008200001B5FFF7B8FF01BD01B501F0FF031146A7
:1008300043EA032242EA024200F003F801BD4FF00E
:1008400000020429C0F0128010F0030C00F04D806B
:10085000CCF1040CBCF1020F18BF00F8012BA8BFAB
:1008600020F8022BA1EB0C0100F03FB85FEAC17C3D
:1008700024BF00F8012B00F8012B48BF00F8012B22
:10088000704710B5203AC0F00B80B1E81850A0E8CE
:100890001850B1E81850A0E81850203ABFF4F5AF4E
:1008A0005FEA027C24BFB1E81850A0E8185044BFAA
:1008B00018C918C0BDE810405FEA827C24BF51F817
:1008C000043B40F8043B08BF7047D20728BF31F80B
:1008D000023B48BF11F8012B28BF20F8023B48BF5C
:1008E00000F8012B70474FF0000200B51346944604
:1008F0009646203922BFA0E80C50A0E80C50B1F178
:100900002001BFF4F7AF090728BFA0E80C5048BF8B
:100910000CC05DF804EB890028BF40F8042B08BF29
:10092000704748BF20F8022B11F0804F18BF00F825
:10093000012B7047704710B50446AFF30080204686
:10094000BDE81040FFF7AEBD01491820ABBEFEE781
:100950002600020080B582B000F06CFE46F2041062
:10096000C0F20000009000F0CFFC0098006800F09A
:100970006BFE46F2F802C0F20002019250789178C4
:10098000D27800F04BFD0198007900F093F80199BE
:10099000C87901F10802002100F052F846F2F8107F
:1009A000C0F2000000F032FE40F23801C1F6FF71E3
:1009B0004BF20040C0F2C440086002B080BD0000AD
:1009C00080B582B000F03EF90190019B4FF4E13117
:1009D0000122104601F05CF802B080BD80B582B003
:1009E0000D20C1F2380000F08FF84DF20000C4F283
:1009F0000400009000210322019203F0A5FA009860
:100A0000019A012103F0A0FA48F21001C4F2040196
:100A1000086820F03000086001F04CFE00F0D0FFC4
:100A200002B080BD4EF21001CEF200010720086036
:100A30004EF21401CEF200016FF07F400860704763
:100A400080B582B08DF807008DF8061000920098EE
:100A500008B1FFE70BE046F2A170C0F2000046F2D9
:100A6000AA51C0F2000140F6A30205F079F89DF802
:100A7000070000F09BFC9DF80600009900F05AFD6D
:100A800044F20001C4F20601087800F03F0008704B
:100A9000FFE744F20600C4F20600007800F00C0103
:100AA0000320B0EB910F01D0FFE7F2E7002002B086
:100AB00080BD000081B08DF8030044F20001C4F253
:100AC0000601087800F0C7009DF8032002F0070235
:100AD00040EAC200087001B07047000082B0019087
:100AE000BDF8060047F20001C4F20401084400907A
:100AF000BDF80410012000FA01F200990868904343
:100B0000086002B07047000082B00190BDF8060096
:100B100047F20001C4F2040108440090BDF804103B
:100B2000012000FA01F2009908681043086002B041
:100B30007047000082B00190BDF8060047F2000146
:100B4000C4F2040108440090BDF80410012000FA2A
:100B500001F2009908681043086002B07047000075
:100B600082B00190BDF8060047F20001C4F2040112
:100B700008440090BDF80410012000FA01F2009929
:100B800008681043086002B07047000082B001900E
:100B9000BDF8060047F20001C4F2040108440090C9
:100BA000BDF80410012000FA01F200990868104312
:100BB000086002B07047000082B00190019808B14F
:100BC000FFE70BE046F2A170C0F2000046F2AA5126
:100BD000C0F2000140F21A4204F0C2FF00208DF87A
:100BE00003000198407800F01F019DF803000843BE
:100BF0008DF803009DF8030044F20401C4F20601DD
:100C0000087044F20502C4F20602107800F0E00019
:100C1000019B9B7803F01F03184410700198007823
:100C20000A78104340F040000870FFE744F20600E5
:100C3000C4F2060000784006002801D4FFE7F5E77B
:100C400002B0704780B500F0C1FA48F24401C4F226
:100C500004010A68012101EB1271B0FBF1F080BDC3
:100C600080B582B047F20000C4F204000068C0F30F
:100C700081400146009140B1FFE7009802280ED064
:100C8000FFE70098032825D028E000F051FAA0F5EE
:100C90000040B0FA80F04009C003019021E040F22A
:100CA000B000C1F6FF70006808B1FFE70BE046F244
:100CB0002560C0F2000046F2AA51C0F200014FF4D4
:100CC000CB7204F04DFF40F2B000C1F6FF70006837
:100CD000019006E04FF47A70019002E0002001904C
:100CE000FFE7019802B080BD80B584B000F0BAF88B
:100CF00003900398019000F069FA01460198B0EB67
:100D0000D10F06D8FFE7039818B1FFE703980290C8
:100D100002E000200290FFE7029804B080BD0000CE
:100D200080B584B000F078F9029044F20000C4F27B
:100D300006000078C0F3C2008DF80F009DF80F1078
:100D40000298C840029044F20100C4F20600007804
:100D5000C0F301108DF80E0044F20C00C4F206003E
:100D6000007800F003008DF80D009DF80E0020B112
:100D7000FFE79DF80D0028B1FFE79DF80D00022860
:100D80002BD1FFE79DF80F0001460191062808D3FB
:100D9000FFE70198062808D0FFE7019807280ED042
:100DA00017E002984009029016E002984CF6CD41F7
:100DB000CCF6CC41A0FB0110000902900CE0029897
:100DC0004AF6AB21CAF6AA21A0FB0110C008029086
:100DD00002E000200290FFE7FFE7029804B080BD28
:100DE00080B584B044F20100C4F2060000788007A8
:100DF000002809D4FFE744F20600C4F20600007898
:100E00008006002803D5FFE70020019026E000F0CF
:100E100029F80290029818B9FFE7029801901CE0A7
:100E200044F20300C4F206000178C1F341118DF8C9
:100E30000F100078C0098DF80E0002989DF80F2061
:100E400046F27601C0F2000101EB82019DF80E200E
:100E500031F8121048430190FFE7FFE7019804B012
:100E600080BD000080B582B044F20600C4F20600E6
:100E7000007800F010010020B0EB111F04D1FFE753
:100E8000FFF74EFF019006E040F25800C1F6FF70F8
:100E900000680190FFE7019802B080BD80B584B082
:100EA0008DF80F009DF80F0001460191132800F204
:100EB00075800199DFE801F00A0A18283872484C59
:100EC0006E726A5054585C727272606600F07EF9FD
:100ED00048F24401C4F204010A68012101EB1271D5
:100EE000B0FBF1F002905CE000F070F948F24401D0
:100EF000C4F20401096801F07062012101EB126182
:100F0000B0FBF1F002904CE000F060F948F24401CF
:100F1000C4F20401096801F47002012101EB1251CD
:100F2000B0FBF1F002903CE000F050F948F24401CF
:100F3000C4F20401096801F47022012101EB12419D
:100F4000B0FBF1F002902CE000F0B4F9029028E040
:100F5000FFF786FE029024E0FFF7C6FE029020E035
:100F600000F022F802901CE0FFF73AFF029018E030
:100F700000F056F9029014E046F60040C0F2DC2082
:100F800002900EE04FF47A7002900AE000F0D0F880
:100F9000029006E000F094F8029002E00020029037
:100FA000FFE7029804B080BD80B582B044F2000033
:100FB000C4F2060000788007002803D4FFE7002071
:100FC000019003E000F006F80190FFE7019802B0FD
:100FD00080BD000081B044F20600C4F20600007833
:100FE000C00738B9FFE740F25800C1F6FF7000684B
:100FF00000900EE040F25000C1F6FF70006844F22D
:101000000801C4F206010978C1F34201C84000900A
:10101000FFE7009801B0704782B044F20C00C4F2C0
:101020000600007800F003000146009140B1FFE7A0
:10103000009801281ED0FFE70098022834D039E03C
:1010400040F2AC00C1F6FF70006808B1FFE70AE0AB
:1010500046F20D60C0F2000046F2AA51C0F2000153
:10106000DA2204F07DFD40F2AC00C1F6FF700068AA
:10107000019022E040F2B000C1F6FF70006808B1B4
:10108000FFE70AE046F21F60C0F2000046F2AA51F4
:10109000C0F20001DF2204F063FD40F2B000C1F6AF
:1010A000FF700068019008E046F60040C0F2DC20C6
:1010B000019002E000200190FFE7019802B0704724
:1010C00082B045F20000C4F2060000780006002855
:1010D00028D5FFE740F2AC00C1F6FF70006808B108
:1010E000FFE70BE046F21360C0F2000046F2AA519F
:1010F000C0F2000140F27B1204F032FD45F2020022
:10110000C4F20600007800F0C0008DF8030040F241
:10111000AC00C1F6FF7000689DF803108909C84053
:10112000019002E000200190FFE7019802B07047B3
:1011300082B045F20000C4F20600007800060028E4
:101140001BD5FFE740F2AC00C1F6FF70006808B1A4
:10115000FFE70BE046F21360C0F2000046F2AA512E
:10116000C0F200014FF4B37204F0FAFC40F2AC009C
:10117000C1F6FF700068019002E000200190FFE7D7
:10118000019802B07047000082B00190019849F6C2
:101190009701884204D8FFE700208DF8030010E093
:1011A000019841F20021C0F27A01884204D8FFE799
:1011B00001208DF8030003E002208DF80300FFE713
:1011C000FFE79DF8030002B07047000080B584B0CF
:1011D00044F20600C4F206000078C0F381000290D9
:1011E00002980190032814D80199DFE801F0060A5B
:1011F0000E0200F015F803900EE0FFF7F1FD0390EA
:101200000AE0FFF7E7FE039006E0FFF705FF039013
:1012100002E000200390FFE7039804B080BD0000C7
:1012200080B584B044F20600C4F20600007840069F
:10123000002803D4FFE70020029034E000F036F8E5
:101240000390039808B1FFE70BE046F20260C0F29A
:10125000000046F2AA51C0F2000140F21A3204F036
:101260007FFC44F20400C4F20600007800F01F0086
:1012700001308DF807009DF807100398B0FBF1F0DE
:10128000039044F20500C4F20600007800F01F004D
:1012900018308DF806009DF8061003984843039017
:1012A00003980290FFE7029804B080BD80B5FFF775
:1012B000B3FE80BD80B582B048F20400C4F20400E1
:1012C0000068C0F301400146009140B1FFE700987B
:1012D000012808D0FFE70098032808D00DE0FFF7A9
:1012E0007FFD01900CE0FFF79BFF019008E046F6C0
:1012F0000040C0F2DC20019002E000200190FFE7F6
:10130000019802B080BD000080B584B003900398BE
:101310000068FFF739FF8DF80B000398017945F25B
:101320000000C4F20600019002F04CFD019844F266
:101330000102C4F20602117801F0C3019DF80B30DE
:1013400003F0030341EA0311039B5B791943117016
:101350000399063102F052FD03984079A8B1FFE7E6
:1013600045F20000C4F206000078000600280CD503
:10137000FFE7FFE744F20600C4F2060000788007AA
:10138000002801D4FFE7F5E7FFE704B080BD0000C7
:1013900081B0009047F20001C4F204010868009A8D
:1013A00062F39340086001B07047000082B08DF88E
:1013B000070044F20C00C4F20600007800F00300BD
:1013C0009DF80710884204D0FFE701208DF8060041
:1013D00003E000208DF80600FFE744F20C01C4F2A0
:1013E0000601087800F0FC009DF8072002F00302D7
:1013F000104408709DF80600C00760B1FFE740F296
:10140000DC500090FFE70098411E009110B1FFE70B
:1014100000BFF8E7FFE7002002B0704783B08DF807
:101420000B008DF80A108DF8092044F20600C4F272
:1014300006000178C1F381010191007800F00100FC
:101440008DF8030044F20800C4F206000078C0F3EF
:1014500042008DF802009DF809009DF802108842B4
:1014600034D0FFE744F20000C4F2060000788007A1
:10147000002804D4FFE70198012818D1FFE79DF860
:101480000300012813D1FFE744F20101C4F2060171
:10149000087800F0FE000870FFE744F20600C4F28E
:1014A00006000078C00708B1FFE7F6E7FFE744F25F
:1014B0000801C4F20601087800F0D0009DF8092068
:1014C00002F0070240EA42000870FFE744F201011F
:1014D000C4F20601087800F0FE009DF80A2002F030
:1014E00001021044087044F20001C4F206010878B9
:1014F00000F0FC009DF80B201043087001980128B3
:1015000006D0FFE79DF80B00800700280FD5FFE706
:10151000FFE744F20600C4F20600007800F0010084
:101520009DF80A10884201D0FFE7F2E7FFE70020AC
:1015300003B0704780B582B08DF807000091009825
:1015400008B1FFE70BE046F2A170C0F2000046F2DE
:10155000AA51C0F2000140F28A7204F001FB44F289
:101560000101C4F20601087800F0FD00087044F2A1
:101570000001C4F20601087800F03B0080300870DA
:10158000FFE744F20600C4F20600007800F01C00F9
:10159000082801D0FFE7F4E744F20501C4F2060190
:1015A000087800F0BF000870FFE744F20600C4F2BC
:1015B000060000788006002801D5FFE7F5E70098CF
:1015C000FFF7FAFA44F20501C4F20601087840F088
:1015D00040000870FFE744F20600C4F206000078FD
:1015E0008006002801D4FFE7F5E7002002B080BDA7
:1015F00081B0009048F20401C4F204010868009A26
:1016000062F31140086001B07047000080B582B0FD
:1016100001900198406848F24401C4F20401086056
:1016200001980078FFF7E4FF01984078FFF7B0FEDB
:1016300002B080BD48F24401C4F204010020C0F2AF
:10164000231008607047000081B00090009840F2BD
:10165000AC01C1F6FF71086001B0704710B59AB0D7
:1016600084461C98CDF860C01791169215938DF89A
:1016700053000020039005901899049104994A1C86
:101680000492087013901290119010900F900E9089
:101690000D900C900B900A9009900890079006907E
:1016A000169800285ED0FFE71799086849681391DB
:1016B000129012981399084348B9FFE70499302013
:1016C000087005980130059005981990B5E0FFE77E
:1016D000129813990843002843D0FFE712981399F2
:1016E000159A0023FEF7FEFF11911090129913989E
:1016F000109B119ADDF854C0A3FB0C3E02FB0CE2D8
:10170000C91A90410E910F900F98B0F1FF3F12DC73
:10171000FFE70E980F990991089008980999C0431E
:10172000C9430791069006990798313140F10000AE
:101730000E910F9007E00E990F98303140F10000A4
:101740000E910F90FFE710981199139112909DF848
:10175000380004994A1C04920870059801300590DD
:10176000B6E767E01799086849680D910C900C98E6
:101770000D99084348B9FFE704993020087005988F
:10178000013005900598199057E0FFE70C980D99E6
:10179000084300284DD0FFE70C980D99159A0023B7
:1017A0000193FEF727FF0246019802920A4602992A
:1017B0000B920A910C9A0D99DDF828C00B9BDDF86D
:1017C00054E0ACFB0EC403FB0E43B2EB0C02994198
:1017D00008920991089A0999D2F10902884108D31F
:1017E000FFE708990998303140F10000089109900D
:1017F00011E0089909989DF85320D3076122002B26
:1018000018BF4122891840F100000A3960F1000038
:1018100008910990FFE70A980B990D910C909DF89B
:10182000200004994A1C0492087005980130059024
:10183000ACE7FFE705981990FFE719981AB010BDBB
:1018400080B540F2B450C1F6FF70006800F0CAFAEB
:10185000BFF34F8F80BD000080B540F2B450C1F699
:10186000FF70806A00F0BEFABFF34F8F80BD0000AA
:1018700080B540F2B450C1F6FF70C06A00F0B2FA11
:10188000BFF34F8F80BD000080B540F2B450C1F669
:10189000FF70006B00F0A6FABFF34F8F80BD000011
:1018A00080B540F2B450C1F6FF70406B00F09AFA78
:1018B000BFF34F8F80BD000080B540F2B450C1F639
:1018C000FF70806B00F08EFABFF34F8F80BD000079
:1018D00080B540F2B450C1F6FF70C06B00F082FAE0
:1018E000BFF34F8F80BD000080B540F2B450C1F609
:1018F000FF70406800F076FABFF34F8F80BD0000A4
:1019000080B540F2B450C1F6FF70806800F06AFA0A
:10191000BFF34F8F80BD000080B540F2B450C1F6D8
:10192000FF70C06800F05EFABFF34F8F80BD00000B
:1019300080B540F2B450C1F6FF70006900F052FA71
:10194000BFF34F8F80BD000080B540F2B450C1F6A8
:10195000FF70406900F046FABFF34F8F80BD000072
:1019600080B540F2B450C1F6FF70806900F03AFAD9
:10197000BFF34F8F80BD000080B540F2B450C1F678
:10198000FF70C06900F02EFABFF34F8F80BD0000DA
:1019900080B540F2B450C1F6FF70006A00F022FA40
:1019A000BFF34F8F80BD000080B540F2B450C1F648
:1019B000FF70406A00F016FABFF34F8F80BD000041
:1019C00080B582B00C20C1F23800FFF79DF84CF2D0
:1019D0000000C4F20400009005210722019202F0E9
:1019E000B3FA0098019A062102F0AEFA0098019A23
:1019F000114602F0A9FA02B080BD000080B582B0A5
:101A000001900091019800F019F848B1FFE740F209
:101A10001860C1F6FF70026801980099904708E0CD
:101A200040F21C60C1F6FF7002680198009990476F
:101A3000FFE7BFF34F8F02B080BD000082B001907E
:101A400000208DF8030001980068C00F20B1FFE767
:101A500001208DF80300FFE79DF8030000F001006E
:101A600002B0704780B582B04FF0FF300190002087
:101A70008DF803000DF1030000F0FEF8012804DBEF
:101A8000FFE79DF803000190FFE7019802B080BDD9
:101A900080B590B08DF83F000E918DF837200C93F3
:101AA000002002900B900A9009900890ADF81E005B
:101AB0000C9903910E9904918DF814008DF815007E
:101AC00001218DF816108DF817108DF818008DF87B
:101AD00019009DF83F008DF81A009DF837008DF829
:101AE000280048F64170ADF82A009DF8370001281B
:101AF00003D1FFE703A80B9025E09DF837000228EB
:101B000005D1FFE743F22150ADF81E001AE09DF821
:101B10003700032805D1FFE743F22150ADF81E003E
:101B20000FE09DF83700042805D1FFE743F221506C
:101B3000ADF81E0004E043F22150ADF81E00FFE7AF
:101B4000FFE7FFE7FFE7BDF81E0043F2215188429F
:101B500048D0FFE740F2F850C1F6FF700190002135
:101B60002022FEF761FE0198011D0160006808A9AE
:101B700003F04CF8ADF81E00FFE7BDF81E0008B1F9
:101B8000FFE7FAE740F2F450C1F6FF70007840F248
:101B9000F851C1F6FF7151F8180B03F0A7F8ADF832
:101BA0001E00FFE7BDF81E0008B1FFE7FAE740F2AC
:101BB000F851C1F6FF7151F81C0B03F05DF8ADF858
:101BC0001E00FFE7BDF81E0008B1FFE7FAE740F28C
:101BD000F850C1F6FF70006840F2A801C1F6FF712D
:101BE0000860FFE7BDF81E0010B080BD80B586B06C
:101BF000059004918DF80F20029300200190019030
:101C0000FFE70198029988421EDAFFE7049800680E
:101C10000130802809D3FFE705980499096800F08E
:101C200079F8049900200860FFE79DF80F000599F6
:101C3000049A126888540499086801300860FFE724
:101C4000019801300190DCE706B080BD83B080B51B
:101C500083B007930692059102900020009005A89A
:101C600001900298019900F08BF80090009803B061
:101C7000BDE8804003B0704780B584B00290FFE7B4
:101C8000029808B9FFE7FBE740F2A800C1F6FF7031
:101C9000006820B9FFE74FF0FF3003900EE0029894
:101CA00000F010F818B9FFE70120019003E04FF0B1
:101CB000FF300190FFE701980390FFE7039804B01D
:101CC00080BD000080B582B0019043F22150ADF894
:101CD0000200019940F2F850C1F6FF701C30012259
:101CE00003F058F8ADF80200BDF8020020B1FFE79C
:101CF0000120ADF8020008E040F2F450C1F6FF7098
:101D000000780020ADF80200FFE7BDF8020002B045
:101D100080BD000080B586B004900391FFE7049871
:101D200008B9FFE7FBE7039818B9FFE70020059023
:101D300022E040F2A800C1F6FF70006818B9FFE782
:101D40000020059018E00499039A40F2F850C1F67B
:101D5000FF70183003F08CF8ADF80A00BDF80A00E7
:101D600018B9FFE70398019003E04FF0FF300190AE
:101D7000FFE701980590FFE7059806B080BD0000D9
:101D800080B5A6B02591249000202390229002A82F
:101D90008021FEF754FD40F2A800C1F6FF700068F4
:101DA00090B1FFE72498259941F6ED33C0F2000386
:101DB00002AA019203F0CCF80146019823912399DD
:101DC000FFF7A8FF2290FFE7229826B080BD000011
:101DD00082B0EFF3108001900198009072B60098E5
:101DE00002B0704780B588B00790079808B1FFE748
:101DF0000BE046F2B960C0F2000046F2C861C0F2E2
:101E000000014FF4AF6203F0ABFE0799087C8968CC
:101E1000C87707998868097C00EB411041F21C01E2
:101E2000405AC0B2C0098DF81B000798C06880B93D
:101E3000FFE70798006858B1FFE70798D0F800C09F
:101E400041689DF81B2002F001020023E047FFE7F4
:101E5000A8E007998868097C00EB411041F218015D
:101E60004058059007998868097C00EB411041F2C1
:101E70001C01405AC0F300108DF80A000798C16891
:101E80000598401A05900598400904909DF81B009C
:101E9000C00720B1FFE704988DF80B0010E004980C
:101EA00028B1FFE79DF810000138019004E0079881
:101EB000007D01380190FFE701988DF80B00FFE7E6
:101EC0009DF80B000799497C88421DD1FFE70798D0
:101ED000C07C8DF809000798007D8DF808009DF9F9
:101EE00009009DF90810884205D0FFE79DF80A0017
:101EF000C00728B9FFE7079890F91300039002E0A4
:101F000000200390FFE71DE09DF80B00079991F971
:101F10001110401A03900398B0F1FF3F07DCFFE770
:101F2000079890F91410039808440390FFE79DF870
:101F30001B00C00728B1FFE70799087C896808776C
:101F4000FFE7FFE79DF80B0007994874039A07998C
:101F5000C87C801AC8740798006858B1FFE70798D2
:101F6000D0F800C04168039B9DF81B2002F00102DD
:101F7000E047FFE79DF81B00C00790B1FFE7079916
:101F80008868097C00EB411041F21C01405AC006F0
:101F9000002805D5FFE70799087C89680877FFE7DF
:101FA000FFE7FFE708B080BD82B000900098019085
:101FB000019880F3108802B07047000080B582B0AD
:101FC0008DF80700002000909DF90700803018B9B7
:101FD000FFE70120009004E09DF9070003F090FD69
:101FE000FFE7009802B080BD80B582B08DF8070091
:101FF000002000909DF90700803018B9FFE701200C
:10200000009004E09DF9070003F092FDFFE70098BF
:1020100002B080BD80B588B006900591069818B1D1
:10202000FFE7059818B9FFE70120079044E00698FC
:10203000007CC00718B9FFE7032007903CE0069931
:10204000C8684A8AEC460023CCF808304FF0010EED
:10205000CCF804E0CCF80030152302F08FFB04909C
:10206000049818B1FFE70420079025E00699C86896
:102070004A8A059B02F07EFD0490049818B1FFE7A0
:102080000420079018E00699C8684A8AEC460023A5
:10209000CCF808300123CCF80430CCF800301523FC
:1020A00002F06CFB0490049818B1FFE7042007903D
:1020B00002E000200790FFE7079808B080BD00000D
:1020C00080B588B0DDF828C0069005918DF8132002
:1020D000ADF81030069818B1FFE7059818B9FFE77A
:1020E000012007904CE09DF81300069908720699AC
:1020F000002048600699086005980699BDF81020F0
:10210000EC460DF10B03CCF804300123CCF8003081
:10211000132302F06FFA03909DF80B000A990870E0
:10212000039800B3FFE79DF80B0062280FD1FFE78B
:102130009DF80B0084280AD1FFE79DF80B00872843
:1021400005D1FFE79DF80B00862806D0FFE706992A
:10215000002008740220079012E0069900200874FD
:10216000032007900CE005980699C860BDF81000A0
:102170000699488206990120087400200790FFE71D
:10218000079808B080BD000080B586B00490039128
:102190000292049830B1FFE7039818B1FFE7029864
:1021A00018B9FFE7012005901CE00498007CC007E7
:1021B00018B9FFE70320059014E00499C8684A8A1B
:1021C000039BDDF808C0EE46CEF800C002F08AFCA2
:1021D0000190019818B1FFE70520059002E000206A
:1021E0000590FFE7059806B080BD000083B002901F
:1021F0000191009200980299486001980299086044
:1022000003B0704782B0019000200090FFE7009873
:10221000042811D8FFE7009946F21810C0F2000018
:1022200050F821000199884201D1FFE704E0FFE75F
:10223000009801300090EAE70098042801D8FFE7F1
:102240000AE046F21F70C0F2000046F24271C0F28E
:102250000001432203F084FC009802B070470000A4
:1022600080B584B0039002910192019808B1FFE714
:102270000AE046F29970C0F2000046F24271C0F2E4
:102280000001642203F06CFC0198007848B9FFE774
:102290000299012000FA01F20399486990434861CC
:1022A0000EE003980299019A527800F02FF80299F3
:1022B000012000FA01F20399486910434861FFE7E1
:1022C00004B080BD82B0019000910198006900992E
:1022D000C84000F0010002B07047000083B00290D7
:1022E00001918DF803209DF8030030B9FFE70199B3
:1022F000012088400299886005E00199012088400A
:1023000002994860FFE703B07047000083B0029075
:1023100001918DF803209DF8030030B9FFE7019982
:10232000012088400299886005E0019901208840D9
:1023300002994860FFE703B07047000082B0019047
:10234000009100980199886002B0704780B584B010
:10235000039002910398FFF755FF8DF807009DF851
:10236000071046F2CC10C0F2000050F82100009097
:1023700002980099C1F8A00004B080BD80B584B077
:1023800003900398FFF73EFF8DF80B009DF80B10AC
:1023900046F2CC10C0F2000050F8210001900198E4
:1023A000D0F8A00004B080BD82B0019000910098E8
:1023B0000199486002B0704782B001900091009886
:1023C0000199C86002B0704782B00090009820B9AF
:1023D000FFE70020ADF8060004E042F6AF70ADF86C
:1023E0000600FFE7BDF8060002B0704780B588B070
:1023F00006900591069808B1FFE70AE046F63A0014
:10240000C0F2000046F23C51C0F20001E12203F0AC
:10241000A7FB059808B1FFE70AE046F2A170C0F2F9
:10242000000046F23C51C0F20001E22203F098FBAA
:102430000598807B022801D8FFE70AE046F2CE40EB
:10244000C0F2000046F23C51C0F20001E32203F06A
:1024500087FB0598817B46F20C10C0F2000050F813
:10246000210008B1FFE70AE046F21350C0F2000075
:1024700046F23C51C0F20001E42203F071FB01A8D6
:1024800003F04EF80598406801900598007A0228FC
:1024900004D1FFE702208DF808000DE00598007ACE
:1024A000032804D1FFE703208DF8080003E0002093
:1024B0008DF80800FFE7FFE70598807A002818BF2D
:1024C00001208DF80F000598C07A002818BF012060
:1024D0008DF80E000598007B002818BF01208DF8AC
:1024E0000B000598407B002818BF01208DF80C00D8
:1024F00000208DF8090001208DF80A0005998A7BDB
:1025000046F20C10C0F2000050F822000A6801A93F
:1025100003F084F80090009830B1FFE70098FFF7CF
:1025200053FFADF81E0009E0069804900598807BE3
:10253000049908700020ADF81E00FFE7BDF81E00EA
:1025400008B080BD80B586B00590049103920598CF
:1025500008B1FFE70BE046F63A00C0F2000046F291
:102560003C51C0F2000140F23F1203F0F9FA049826
:1025700008B1FFE70BE046F23750C0F2000046F228
:102580003C51C0F200014FF4A07203F0E9FA039845
:1025900008B1FFE70BE046F2A350C0F2000046F29C
:1025A0003C51C0F2000140F2411203F0D9FA059803
:1025B00002900298017846F20C10C0F2000050F828
:1025C00021000499039A03F0EFF901900198FFF7B5
:1025D000FBFE06B080BD000080B584B00390029180
:1025E0000192039808B1FFE70BE046F63A00C0F20B
:1025F000000046F23C51C0F200014FF4AA7203F011
:10260000AFFA029808B1FFE70BE046F23750C0F28C
:10261000000046F23C51C0F2000140F2551203F0B6
:102620009FFA019808B1FFE70BE046F2A350C0F211
:10263000000046F23C51C0F200014FF4AB7203F0CF
:102640008FFA039800900098017846F20C10C0F2BF
:10265000000050F821000299019A03F02DFA0020A1
:1026600004B080BD80B582B04AF20000C4F204001C
:10267000009002210022019201F066FC0098019A6C
:10268000032101F061FC02B080BD000080B540F282
:102690002060C1F6FF70016846F20000C4F2060037
:1026A00001F0ECFA80BD000080B50220FEF7F6FBD9
:1026B00080BD000080B584B00A20C1F23800FEF76A
:1026C00023FA46F27200C0F200000088ADF80C0058
:1026D0004AF20000C4F204000190022103AA01F0B2
:1026E000DFFB019846F27401C0F200010988ADF8E1
:1026F0000810032102AA01F0D3FB04B080BD000042
:1027000080B582B0019000910198009940F260027A
:10271000C1F6FF7200F0DCF902B080BD80B540F276
:102720006000C1F6FF7000F06FFA80BD80B582B026
:1027300040F26000C1F6FF7000F078FA0190019855
:1027400002B080BD80B582B00190FFF7B3FF019861
:1027500040F26001C1F6FF7100F0B4FA02B080BD32
:1027600080B582B08DF807009DF8070040F2600147
:10277000C1F6FF7100F0B8FA02B080BD80B5FFF776
:1027800071FF40F26000C1F6FF7000F00DFB80BDEC
:1027900080B586B00590049103928DF80B300598B2
:1027A0000499039A9DF80B3040F2600CC1F6FF7C4F
:1027B000EE46CEF800C003F0010300F0BDFE06B007
:1027C00080BD000080B586B00590049103928DF81D
:1027D0000B3005980499039A9DF80B3040F2600C79
:1027E000C1F6FF7CEE46CEF800C003F0010300F016
:1027F00013FF06B080BD000081B000900098012852
:1028000007D0FFE7009840F23C01C1F6FF71086075
:10281000FFE740F29801C1F6FF710120087001B096
:102820007047000080B582B0019000910198009936
:1028300040F26002C1F6FF7201F0A2F902B080BD61
:1028400080B582B0019000910198009940F2600239
:10285000C1F6FF7201F0D6F902B080BD80B540F23A
:102860002060C1F6FF70416847F20000C4F2060024
:1028700001F004FA80BD000083B0029001910020B5
:1028800000909DF80400C006002807D5FFE70299D4
:102890001020C87040F24F4000900AE09DF80400FC
:1028A000C00720B1FFE740F24E40009000E0FFE794
:1028B000FFE7009803B0704782B0019000919DF847
:1028C00000004006002806D5FFE70199887800F04F
:1028D000BF008870FFE79DF800008006002806D53D
:1028E000FFE70199887900F08F008871FFE702B057
:1028F0007047000082B001908DF803109DF803002E
:10290000C00730B1FFE70199887840F080008870F7
:1029100005E00199887800F07F008870FFE702B039
:102920007047000083B0029001919DF804004006BA
:10293000002806D5FFE70299887840F040008870AB
:10294000FFE79DF804008006002815D5FFE70298F0
:1029500080798DF803009DF8030000F0AF008DF83A
:1029600003009DF8030040F020008DF803009DF85F
:10297000030002998871FFE703B0704782B00190AD
:1029800000200090FFE70098012811D8FFE7009988
:1029900046F22C10C0F2000050F821000199884244
:1029A00001D1FFE704E0FFE7009801300090EAE77B
:1029B0000098012801D8FFE70AE046F2A870C0F2AB
:1029C000000046F2CA71C0F200019E2203F0C8F86E
:1029D000009802B07047000010B586B004900391D3
:1029E000029200200190029840798DF8030003992B
:1029F000029C20686268A368D4F80CC0D4F810E088
:102A000064694C61C1F810E0C1F80CC08B604A6089
:102A1000086002984069039988610398007B50B16F
:102A2000FFE702984079012804D1FFE700208DF8E4
:102A30000300FFE7FFE7039901200877049845F2B8
:102A4000120100F0B9F903980078C00708B3FFE756
:102A50000398007B20B1FFE70399022008770BE081
:102A60009DF8030020B9FFE703990320087702E0EF
:102A70000420059029E0FFE7FFE70498C0780006EE
:102A8000002801D4FFE7F8E70498039900F080FBE1
:102A900018E0039800788007002809D5FFE704981C
:102AA000039909799DF8032000F0DCF9019008E012
:102AB0000498039909799DF8032000F08FFA01909A
:102AC000FFE7FFE701980590FFE7059806B010BD06
:102AD00080B58AB009900891079200200690059071
:102AE0000998013801460491032800F28680049970
:102AF000DFE801F002093E420898400007990968A2
:102B0000096808707DE008980390012808D0FFE765
:102B1000039802280AD0FFE7039803280CD011E09D
:102B200048F2A060C0F2010006900FE041F680205C
:102B3000C0F20600069009E044F24020C0F20F0007
:102B4000069003E06FF003000590FFE7059870B969
:102B5000FFE70798006806990191016802914068B3
:102B6000804701990246029800F0C8F9FFE748E063
:102B70006FF00300059044E00798006800688078D3
:102B80008006002811D5FFE70799086849680068A2
:102B900000F064FA07984168002088610799496845
:102BA000086107994968486126E00798006800684D
:102BB000C078400700281DD4FFE707980068016827
:102BC000887840F008008870FFE707984068007830
:102BD000C00708B1FFE7F8E7079908684968006887
:102BE00000F0A2FD079841680020886007994968B5
:102BF000C86000E0FFE7FFE703E06FF00300059027
:102C0000FFE705980AB080BD82B001900198406846
:102C1000406928B1FFE7019840684069009002E0F0
:102C200004200090FFE7009802B0704780B584B0A0
:102C300002900020039002980068006800F064FD94
:102C40000190029800680068007878B9FFE7029860
:102C500040684069009001990398890861F38200F7
:102C60000390039840F00200039014E0029840683B
:102C7000C0680090019800F00401012080EA9101F1
:102C8000039820F0040040EA81000390039820F0AC
:102C900002000390FFE7009828B1FFE7039840F097
:102CA0000100039004E0039820F001000390FFE787
:102CB00001990398090961F304100390039804B083
:102CC00080BD000082B0019000910098007BC00799
:102CD00038B9FFE7019800998860009901200873CE
:102CE000FFE7002002B0704780B586B08DF8130072
:102CF0000391002002909DF813000146019140B11C
:102D0000FFE70198012819D0FFE70198022819D0A0
:102D100040E00398007B800700280ED5FFE7039A68
:102D200004200021FFF7D4FE03980068006800F03B
:102D300065F8039901200873FFE72FE06FF00300A7
:102D400002902BE00398007B20B9FFE74FF0FF30A3
:102D5000059026E00398007B8007002801D5FFE757
:102D60001CE0039800680068FFF708FE014646F281
:102D70003410C0F2000050F82100FDF7F1FE039876
:102D800000680168802088700399087B40F0020089
:102D9000087303E06FF003000290FFE702980590CC
:102DA000FFE7059806B080BD81B000900099002033
:102DB000087301B07047000082B0019000919DF847
:102DC0000100C006002807D5FFE7009A019988791D
:102DD00040EA12208871FFE79DF8010040060028B4
:102DE00007D5FFE7009A0199887940EA1220887197
:102DF000FFE700980199C87002B0704780B582B0B3
:102E0000019001980021FFF775FD0198FFF7B6FDCD
:102E1000014646F23C10C0F2000050F82100FDF7D8
:102E20005DFE02B080BD000082B001900198C078C4
:102E30000090019880794006002805D5FFE70098AA
:102E400040F480400090FFE701988079C006002898
:102E500005D5FFE7009840F480500090FFE7009808
:102E600002B0704780B586B005908DF813108DF8CC
:102E70001220002003900598FFF7D6FF019006204E
:102E80008DF8030005988078800600280AD4FFE7B3
:102E90009DF804008006002804D5FFE740F24C406E
:102EA000039028E0059840788DF80B009DF80B0002
:102EB00000F03F00059948700599887840F01400AB
:102EC00088709DF80B0005994870FFE79DF8030096
:102ED000411E8DF8031010B1FFE700BFF6E79DF823
:102EE000130040009DF81220411C012A08BF08462B
:102EF00005990871FFE7039806B080BD8CB00B9070
:102F00000A9109924FF0FF30059000200490039041
:102F1000012102918DF80700FFE79DF807000228C4
:102F200051D8FFE7059808B9FFE74CE002989DF8F3
:102F300007108840089000208DF80600FFE79DF8F4
:102F400006003F2838D8FFE7099808999DF8063011
:102F500046F24412C0F2000232F813205143B0FB93
:102F6000F1F007900A980799884205D9FFE70A9877
:102F70000799401A009004E007980A99401A0090B7
:102F8000FFE7009806900698059988420DD2FFE762
:102F90009DF8070004909DF80600039006980590A0
:102FA000069808B9FFE707E0FFE7FFE79DF806008E
:102FB00001308DF80600C2E7FFE79DF807000130F9
:102FC0008DF80700A9E70499039800F03F0040EA54
:102FD00081100B9948700CB07047000080B584B028
:102FE00003908DF80B108DF80A20002001900398B3
:102FF000FFF71AFF00909DF800008006002804D516
:10300000FFE740F24C40019010E00399887840F0CF
:10301000300088709DF80B0040009DF80A20411C8C
:10302000012A08BF084603990871FFE7019804B018
:1030300080BD000082B00190002000900199887846
:1030400000F0C7008870FFE70198C078800600286C
:1030500001D5FFE7F8E7009802B0704780B584B06B
:1030600002900191019808B1FFE70BE046F63200AB
:10307000C0F2000046F2CA71C0F2000140F20562DF
:1030800002F06EFD02984021FFF716FC0199002026
:103090000877029880788006002804D4FFE740F281
:1030A0004C40039030E001984079012818D1FFE7A7
:1030B0000299887840F008008870FFE70298C0788D
:1030C0008007002801D4FFE7F8E702990220C870C2
:1030D0000299887800F0C70088700298007910E0A3
:1030E000FFE70298C0788007002801D4FFE7F8E7DF
:1030F00002990220C8700299887800F0C700887091
:10310000FFE700200390FFE7039804B080BD0000B4
:1031100080B586B00590049103920293049808B19B
:10312000FFE70BE046F63200C0F2000046F2CA713B
:10313000C0F2000140F2B95202F012FD0598FFF70B
:103140001DFC0190049800212822FDF76DFB0398D7
:10315000049908620298049948620498019A40F21E
:103160002061C1F6FF7141F8220040F22861C1F6EA
:10317000FF7143F29110C0F200000860019946F21D
:10318000C810C0F200004056FEF72EFF06B080BD0A
:1031900080B586B005900491049808B1FFE70BE074
:1031A00046F62000C0F2000046F2CA71C0F20001EB
:1031B00040F2696202F0D4FC04980390002002906F
:1031C00005990220C870059803990DF1070200F0D7
:1031D00085F802909DF80700C00718B9FFE702982C
:1031E000B8B3FFE703980078400700280CD5FFE745
:1031F000029840F24E41884206D0FFE7029840F222
:103200005141884211D1FFE7059880788006002857
:103210000AD5FFE70598FFF70DFF20B1FFE74FF450
:103220008A600290FFE7FFE7FFE703990020087735
:1032300005984021FFF740FB0398006A40B1FFE783
:1032400003990598029AD1F820C04B6AE047FFE73E
:10325000FFE706B080BD000080B584B00390029106
:103260000192029808B1FFE70BE046F63200C0F287
:10327000000046F2CA71C0F2000140F2DF5202F0D3
:103280006FFC019808B1FFE70BE046F64700C0F27B
:10329000000046F2CA71C0F200014FF4BC6202F0B5
:1032A0005FFC002000900298007F20B1FFE740F211
:1032B0004C4000900EE003980299019AFFF78CFBB6
:1032C0000090009828B9FFE703984021FFF72AFBF8
:1032D000FFE7FFE7009804B080BD000080B58CB028
:1032E0000A9009910892002007900A99C9780691DE
:1032F000089908700998406905900998007F03288B
:1033000005D1FFE705990120039089B1FFE70998EE
:10331000017F00200529029007D1FFE705980138B9
:10332000B0FA80F040090290FFE702980390FFE7AF
:10333000039800F001008DF813000A980699FFF732
:103340009BFA0790079840F24E41884208D1FFE768
:103350009DF81300C00718B1FFE700200790FFE7B2
:103360000998007F012820D1FFE79DF81800C007C9
:1033700020B1FFE740F25140079015E00998007B2B
:1033800020B1FFE70999022008770CE009984079FD
:1033900020B9FFE709990320087703E00999042081
:1033A0000877FFE7FFE7FFE7FFE7079818B1FFE7B8
:1033B00007980B90BCE00998007F02380146019104
:1033C000032800F2A6800199DFE801F0023D546A6B
:1033D0000998007B60B1FFE70999087B0138087301
:1033E00009998868097BC900C8400A99087129E0D1
:1033F00009984079D0B9FFE70998406988B1FFE79B
:103400000999032008770998006900780A990871DA
:1034100009990869013008610999486901384861CA
:1034200003E0089901200870FFE70AE00A9809996B
:1034300009790122FFF716FD079009990420087702
:10344000FFE7FFE771E00998406970B1FFE709986D
:10345000006900780A9908710999086901300861C2
:10346000099948690138486103E00899012008700A
:10347000FFE75AE00A99887800F0E70088700A9818
:10348000007909984069012806D1FFE70A998878F0
:1034900040F008008870FFE709990520087744E0AC
:1034A000099A5069411E516190B3FFE7099840693C
:1034B000A8B9FFE70899012008700998007840072B
:1034C000002805D4FFE70A98FFF7B4FD079005E050
:1034D0000A99887840F010008870FFE7FFE70A98A3
:1034E00000798DF812009DF8120009990969087099
:1034F000099908690130086109984069012806D1D5
:10350000FFE70A99887840F008008870FFE7FFE736
:103510000BE046F64100C0F2000046F2CA71C0F26C
:10352000000140F2FF1202F01BFB07980B90FFE72F
:103530000B980CB080BD000080B58EB0DDF840C0A7
:103540000C900B910A928DF8273010984068007FFC
:1035500020B1FFE76FF001000D9059E0109A10685C
:1035600051689368006843F6F942C0F20002FFF721
:10357000CFFD0C988DF8080001208DF8090000207F
:1035800003908DF810000B9905910A99069101900E
:10359000109800680068C0788006002805D5FFE70D
:1035A000019840F002000190FFE79DF82700C00756
:1035B00028B1FFE7019840F004000190FFE710995F
:1035C00008684968006801AAFFF746FE0890089855
:1035D000009058B1FFE7009840F24C41884208D073
:1035E000FFE70098B0F58A6F07D00AE00020079047
:1035F0000BE06FF00100079007E06FF0020007900A
:1036000003E04FF0FF300790FFE707980D90FFE7CA
:103610000D980EB080BD000080B58EB0DDF840C0C2
:103620000C900B910A928DF8273010984068007F1B
:1036300020B1FFE76FF001000D9058E0109A10687C
:1036400051689368006843F6F942C0F20002FFF740
:103650005FFD0C988DF8080000208DF8090003909C
:103660008DF810000B9905910A9906910190109818
:1036700000680068C0788006002805D5FFE701983B
:1036800040F002000190FFE79DF82700C00728B135
:10369000FFE7019840F004000190FFE710990868E7
:1036A0004968006801AAFFF7D7FD089008980090C4
:1036B00058B1FFE7009840F24C41884208D0FFE73C
:1036C0000098B0F58A6F07D00AE0002007900BE061
:1036D0006FF00100079007E06FF00200079003E031
:1036E0004FF0FF300790FFE707980D90FFE70D9828
:1036F0000EB080BD80B582B0019000910198009914
:10370000FFF75AFB02B080BD80B582B001900198EE
:10371000FFF78AFB02B080BD80B582B001900198AE
:10372000FFF782FB02B080BD80B584B003900291A8
:10373000029808B1FFE70BE046F63200C0F2000045
:1037400046F2CA71C0F2000140F6250202F008FA02
:1037500002980078C00778B1FFE703986021FFF76F
:10376000ABF802980430002101911422FDF75CF8B7
:10377000019802990870FFE704B080BD80B586B05B
:103780000590049103920293049808B1FFE70BE0BF
:1037900046F63200C0F2000046F2CA71C0F20001E3
:1037A00040F2CC7202F0DCF90598FFF7E7F80190DF
:1037B000049800212422FDF737F803980499C86182
:1037C0000298049908620498019A40F22061C1F6B7
:1037D000FF7141F8220040F22C61C1F6FF7143F203
:1037E000FD70C0F200000860019946F2C810C0F2F6
:1037F00000004056FEF7F8FB06B080BD80B588B0EB
:1038000007900691069808B1FFE70BE046F6200006
:10381000C0F2000046F2CA71C0F2000140F65B023D
:1038200002F09EF900208DF815000699049102908F
:103830000798FFF771FFADF8160004980430039065
:10384000BDF816004004002830D5FFE707984FF474
:103850008041FFF7B1FA07990220C87004980078F8
:10386000C007D8B1FFE70399202008700399002012
:10387000C86004990870049880690399097808421F
:103880000BD0FFE70498C06938B1FFE7049A0798A6
:103890000399D369126A9847FFE7FFE7BDF816005E
:1038A0004006002801D4FFE726E1FFE7BDF8160037
:1038B000C004002825D5FFE707984FF48051FFF793
:1038C0007BFA07990220C8700399102008700498A9
:1038D00080690399097808420BD0FFE70498C06912
:1038E00038B1FFE7049A07980399D369126A984799
:1038F000FFE7BDF816004006002801D4FFE7FBE013
:10390000FFE707990220C870BDF81600C00750B342
:10391000FFE70799887800F0E7008870079800793A
:103920000498C068E8B1FFE7039920200870039964
:1039300040F24E40C86004990020087004988069E5
:103940000399097808420BD0FFE70498C06938B1A1
:10395000FFE7049A07980399D369126A9847FFE72B
:1039600000E0FFE78AE0BDF816004006002835D5E4
:10397000FFE704990120087003990870BDF816004C
:103980004007002809D5FFE70799887840F0100024
:10399000887001208DF815000DE00799887800F0F7
:1039A000E70088700798007920B9FFE70399402065
:1039B0000870FFE7FFE704988069039909780842D7
:1039C0000BD0FFE70498C06938B1FFE7049A079865
:1039D0000399D369126A9847FFE74EE0BDF81600D5
:1039E0000006002845D5FFE7BDF81600400700286F
:1039F00004D5FFE701208DF8150039E003988068B1
:103A000002900398406818B1FFE7029890B9FFE769
:103A10000399042008700498C06938B1FFE7049A3C
:103A200007980399D369126A9847FFE70399002022
:103A30000861FFE7079800798DF807000498C068CF
:103A4000A8B1FFE79DF80700049B99684A1C9A609B
:103A500008700499C8680138C86003990869013082
:103A600008610498C06808B9FFE7FFE7FFE7FFE7D0
:103A700002E007980079FFE7FFE7FFE79DF81500F0
:103A8000C007C8B3FFE703988068029003984068B6
:103A900018B1FFE7029890B9FFE703990220087078
:103AA0000498C06938B1FFE7049A07980399D3696D
:103AB000126A9847FFE7039900200861FFE704981E
:103AC000C06880B1FFE7049A9068411C916000785B
:103AD000079908710499C8680138C8600399086992
:103AE0000130086107E00799887800F0E7008870E6
:103AF00007980079FFE7FFE708B080BD80B586B082
:103B0000049003910292039808B1FFE70BE046F698
:103B10003200C0F2000046F2CA71C0F2000140F269
:103B2000FB7202F01DF803980078C00720B1FFE790
:103B300040F24C4005901FE0049860210191FEF78F
:103B4000BBFE0398043000211422FCF76DFE03999C
:103B500001200870029840F046000399886104989B
:103B600045F21201FFF7C6FD01990498FEF7DAFE4F
:103B7000FFE700200590FFE7059806B080BD000034
:103B800080B586B00590049103920398006801689F
:103B900080204871039A106851689368006843F662
:103BA0005552C0F20002FFF7E9FD03990868496821
:103BB00000682022FFF7A2FF029005980399496848
:103BC0008860049803994968C86003984168002098
:103BD00048610298009030B1FFE7009840F24C41F4
:103BE000884203D006E00020019007E06FF001005A
:103BF000019003E04FF0FF300190FFE7019806B01D
:103C000080BD000080B586B0059004910392039AB0
:103C1000106851689368006843F65552C0F200027C
:103C2000FFF7ACFD03990868496800682022FFF798
:103C300065FF029005980399496888600498039984
:103C40004968C86003984168002048610298009064
:103C500030B1FFE7009840F24C41884203D006E0C3
:103C60000020019007E06FF00100019003E04FF0A9
:103C7000FF300190FFE7019806B080BD80B584B0A9
:103C8000039002910398C0788DF80700039880781C
:103C90008DF806009DF806008006002806D4FFE790
:103CA0009DF80700C006002809D5FFE740F228600C
:103CB000C1F6FF70026803980299904708E040F24D
:103CC0002C60C1F6FF700268039802999047FFE7E5
:103CD000BFF34F8F04B080BD81B0002000900098EA
:103CE00001B0704781B046F2C410C0F20000006815
:103CF0000090009801B0704780B586B0059004919F
:103D000003920293002001900398009060B1FFE7B6
:103D1000009840F24F4188420CD0FFE7009840F2F3
:103D20005141884203D008E00120019008E01020B2
:103D3000019005E04020019002E002200190FFE7A1
:103D4000029820B1FFE7029901988847FFE706B083
:103D500080BD000080B586B00590049103920020DC
:103D600002900498007801460191202804D0FFE7D2
:103D70000198402803D005E00120029005E02020B2
:103D8000029002E002200290FFE7039820B1FFE7D3
:103D9000039902988847FFE706B080BD80B540F2DE
:103DA0005400C1F6FF70026840F23060C1F6FF7047
:103DB00001684AF20000C4F202009047BFF34F8F3F
:103DC00080BD000082B001908DF80310019800784A
:103DD0008DF802009DF8020000F0F0008DF802005E
:103DE0009DF803109DF8020008438DF802009DF82D
:103DF00002000199087002B07047000083B0029081
:103E00000191029800788DF803009DF8030000F0FE
:103E10005F008DF80300019801789DF803000843C6
:103E20008DF803009DF8030002990870019840780E
:103E300080010299887003B07047000080B54FF28E
:103E40000000C4F20F00002101F0BAFE80BD0000A6
:103E500080B54FF24000C4F20F00012101F0B0FE26
:103E600080BD000080B54FF28000C4F20F00022137
:103E700001F0A6FE80BD000080B54FF2C000C4F284
:103E80000F00032101F09CFE80BD000080B54FF2C1
:103E90000010C4F20F00042101F092FE80BD00006A
:103EA00084B0039002910192019808B1FFE70BE002
:103EB00046F2A170C0F2000046F20021C0F20001FB
:103EC0004FF4A27201F04CFE0398029900EB8100BE
:103ED0000090019800880099088004B070470000A5
:103EE00084B0039002910192019808B1FFE70BE0C2
:103EF00046F2A170C0F2000046F20021C0F20001BB
:103F00004FF4A27201F02CFE0398029900EB81009D
:103F10000090019800880099088004B07047000064
:103F200083B0029001918DF803200298019950F816
:103F300021009DF8031061F313400299019A41F8A2
:103F4000220003B07047000083B0029001918DF809
:103F500003200298019950F821009DF8031061F3A5
:103F60000A200299019A41F8220003B0704700002C
:103F700085B00490049800680390002002908DF8AA
:103F80000700FFE79DF80700C007002836D1FFE7CC
:103F90000398411C03914078203801460091102875
:103FA00024D80099DFE801F01322221D22222222C8
:103FB0002222220E220922221800029840F001003B
:103FC00002901AE0029840F00200029015E0029878
:103FD00040F00400029010E0029840F008000290C7
:103FE0000BE0029840F01000029006E003980138C0
:103FF000039001208DF80700FFE7C3E703980499B9
:104000000860029805B0704784B003900398006878
:104010000290002001900298411C029140780146D4
:104020000091682804D0FFE700986C2815D029E09B
:104030000298411C02914078682808D0FFE7019857
:1040400040F04000019002980138029004E001988D
:1040500040F020000190FFE718E00298411C029117
:1040600040786C2808D0FFE7019840F0800001906C
:1040700002980138029004E0019840F480700190A9
:10408000FFE703E0029801380290FFE702980399E6
:104090000860019804B0704786B0059004910392BF
:1040A0000598006802900620019000208DF803001A
:1040B000039820B1FFE7039900200870FFE70298FA
:1040C000411C029140782E2847D1FFE70020019043
:1040D0008DF80300FFE79DF80300E8BBFFE70298B7
:1040E000411C029140788DF802009DF802003028B2
:1040F00016DBFFE79DF80200392811DCFFE7019885
:1041000000EB80019DF8020000EB41003038019087
:10411000039820B1FFE7039901200870FFE71AE038
:104120009DF802002A280ED1FFE7049A1068011DAD
:10413000116000680190039820B1FFE70399012006
:104140000870FFE706E002980138029001208DF820
:104150000300FFE7FFE7BEE703E0029801380290A3
:10416000FFE7029805990860019806B070470000C3
:1041700081B08DF803009DF803006F2804D1FFE79C
:1041800008208DF8020017E09DF80300622804D192
:10419000FFE702208DF802000DE09DF80300702873
:1041A00004D1FFE710208DF8020003E00A208DF80B
:1041B0000200FFE7FFE7FFE79DF8020001B070474C
:1041C00086B0059104900392029301208DF80700B8
:1041D0000598B0F1FF3F04DCFFE702992D2008703D
:1041E0001BE09DF80C008007002804D5FFE702992A
:1041F0002B20087010E09DF80C004007002804D523
:10420000FFE702992020087005E00299002008705D
:104210008DF80700FFE7FFE7FFE79DF8070006B00E
:104220007047000084B003900291002001908DF847
:104230000300FFE79DF8030088BBFFE7039A1068BF
:10424000411C116040788DF802009DF80200302872
:104250000FDBFFE79DF8020039280ADCFFE7019831
:1042600000EB80019DF8020000EB41003038019026
:1042700014E09DF802002A2807D1FFE7029A10688F
:10428000011D11600068019007E00399086801387A
:10429000086001208DF80300FFE7FFE7CAE70198F7
:1042A00004B0704782B08DF80700002000909DF8A0
:1042B0000700642805D0FFE79DF80700692803D1AF
:1042C000FFE701200090FFE7009802B07047000070
:1042D00082B08DF80700002000909DF80700662846
:1042E00005D0FFE79DF80700462803D1FFE701202E
:1042F0000090FFE7009802B07047000082B08DF890
:104300000700002000909DF807006F280FD0FFE7FE
:104310009DF8070062280AD0FFE79DF80700702883
:1043200005D0FFE79DF80700752803D1FFE70120BE
:104330000090FFE7009802B07047000082B08DF84F
:104340000700002000909DF80700782805D0FFE7BF
:104350009DF80700582803D1FFE701200090FFE7F0
:10436000009802B07047000080B584B0DDF824C02A
:10437000DDF820C0DDF81CC0DDF818C00390029104
:1043800001928DF803309DF80C00000700281CD521
:10439000FFE79DF8030060B1FFE7DDF81CC0089857
:1043A00009999DF803200123E04700208DF80300C0
:1043B000FFE7DDF81CC008980999029A019BD31AFF
:1043C0003022E047029801901FE09DF80C00C007E2
:1043D000D0B9FFE7DDF81CC008980999029A019B43
:1043E000D31A2022E0479DF8030060B1FFE7DDF813
:1043F0001CC0089809999DF803200123E04700207C
:104400008DF80300FFE7FFE7FFE79DF8030048B1E1
:10441000FFE7DDF81CC0089809999DF803200123E7
:10442000E047FFE7FFE70698007858B1FFE7DDF8BF
:104430001CC008980999069A531E06931278012306
:10444000E047F0E79DF80C00C00750B1FFE7DDF84A
:104450001CC008980999029A019BD31A2022E047B0
:10446000FFE704B080BD000080B588B0DDF834C03F
:10447000DDF830C0DDF82CC0DDF828C007900691CB
:1044800005928DF8133000208DF812009DF81C0065
:10449000000700282DD5FFE79DF81C00C006002866
:1044A0001BD5FFE7DDF82CC00C980D9930220123B5
:1044B0000393E047039BDDF82CC00C980D999DF801
:1044C00013204FEAC27E7822BEF1000F18BF582297
:1044D000E04703988DF81200FFE7DDF82CC00C9838
:1044E0000D99069A059BD31A3022E047069805904D
:1044F0003AE09DF81C00C007A8BBFFE79DF81C0030
:10450000C006002804D5FFE7059802300590FFE7B4
:10451000DDF82CC00C980D99069A059BD31A202221
:10452000E0479DF81C00C00600281BD5FFE7DDF81A
:104530002CC00C980D99302201230293E047029B76
:10454000DDF82CC00C980D999DF813204FEAC27E1F
:104550007822BEF1000F18BF5822E04702988DF86C
:104560001200FFE7FFE7FFE79DF81C00C0060028E8
:104570001FD5FFE79DF81200D8B9FFE7DDF82CC082
:104580000C980D99302201230193E047019BDDF83F
:104590002CC00C980D999DF813204FEAC27E78220A
:1045A000BEF1000F18BF5822E04705980230059071
:1045B000FFE7FFE70A98007858B1FFE7DDF82CC065
:1045C0000C980D990A9A531E0A9312780123E0471A
:1045D000F0E79DF81C00C00750B1FFE7DDF82CC0E4
:1045E0000C980D99069A059BD31A2022E047FFE705
:1045F00008B080BD80B586B0844609980898CDF88B
:1046000010C00391ADF80A208DF809308DF808002C
:104610000398027A40F29801C1F6FF710020885495
:104620000398017A40F23C00C1F6FF70012340F884
:1046300021300498D0F814C0BDF80A000DF109012A
:104640001A46E04701900198C0BBFFE7FFE70398D7
:10465000017A40F29800C1F6FF70405CC00760B973
:10466000FFE70398006828B1FFE7039801684068F6
:10467000884701E000BFFFE7E9E70398017A40F2CD
:104680003C00C1F6FF7050F82100022806D1FFE778
:104690000498826A042000219047FFE70398017A7A
:1046A00040F23C00C1F6FF7050F82100012804D010
:1046B000FFE74FF0FF3005905CE002E001980590C5
:1046C00058E00398017A40F29800C1F6FF70002389
:1046D00043540398027A40F23C01C1F6FF71012075
:1046E00041F822000498D0F818C0BDF80A000999D2
:1046F0009DF80820E04701900198C0BBFFE7FFE765
:104700000398017A40F29800C1F6FF70405CC00740
:1047100060B9FFE70398006828B1FFE703980168D4
:104720004068884701E000BFFFE7E9E70398017AA6
:1047300040F23C00C1F6FF7050F82100022806D17B
:10474000FFE70498826A042000219047FFE703985E
:10475000017A40F23C00C1F6FF7050F821000128B8
:1047600004D0FFE74FF0FF300190FFE7FFE701982B
:104770000590FFE7059806B080BD0000B0B588B091
:1047800094468E4604460E980D990C9A0694CDF8E0
:1047900014E0ADF812C08DF811308DF810208DF8AE
:1047A0000F108DF80E009DF811008DF80600002006
:1047B0008DF807009DF80F00002800F0BE80FFE78D
:1047C0000598027A40F29801C1F6FF7100208854E2
:1047D0000598017A40F23C00C1F6FF70012340F8D1
:1047E00021300698D0F814C0BDF812000DF1060172
:1047F0001A46E04702900298C0BBFFE7FFE7059822
:10480000017A40F29800C1F6FF70405CC00760B9C1
:10481000FFE70598006828B1FFE705980168406840
:10482000884701E000BFFFE7E9E70598017A40F219
:104830003C00C1F6FF7050F82100022806D1FFE7C6
:104840000698826A042000219047FFE70598017AC4
:1048500040F23C00C1F6FF7050F82100012804D05E
:10486000FFE74FF0FF300790C9E002E002980790A1
:10487000C5E00598017A40F29800C1F6FF70002368
:1048800043540598017A40F23C00C1F6FF700122C2
:1048900040F821200698D0F818C0BDF812000DF19C
:1048A00006010131E04702900298C0BBFFE7FFE735
:1048B0000598017A40F29800C1F6FF70405CC0078D
:1048C00060B9FFE70598006828B1FFE7059801681F
:1048D0004068884701E000BFFFE7E9E70598017AF3
:1048E00040F23C00C1F6FF7050F82100022806D1CA
:1048F000FFE70698826A042000219047FFE70598A9
:10490000017A40F23C00C1F6FF7050F82100012806
:1049100004D0FFE74FF0FF30079070E002E002980C
:1049200007906CE09DF807009DF80F1088439DF8F4
:10493000101008438DF8070004E09DF810008DF872
:104940000700FFE70598027A40F29801C1F6FF716F
:10495000002088540598027A40F23C01C1F6FF71AC
:10496000012041F822000698D0F814C0BDF81200CA
:104970009DF80E1001F001030DF106010222E0473F
:1049800002900298C0BBFFE7FFE70598017A40F26A
:104990009800C1F6FF70405CC00760B9FFE705985A
:1049A000006828B1FFE7059801684068884701E082
:1049B00000BFFFE7E9E70598017A40F23C00C1F645
:1049C000FF7050F82100022806D1FFE70698826A9E
:1049D000042000219047FFE70598017A40F23C004F
:1049E000C1F6FF7050F82100012804D0FFE74FF016
:1049F000FF300290FFE7FFE702980790FFE7079874
:104A000008B0B0BD82B00190019840788DF80300E5
:104A10009DF8030000F09F008DF803009DF803004F
:104A200040F040008DF803009DF8030001994870A4
:104A3000002002B07047000081B000904EF6105187
:104A4000CEF20001086820F004000860BFF34F8F29
:104A500030BFBFF36F8F002001B0704780B540F2C8
:104A60009C00C1F6FF70006808B1FFE70BE046F25A
:104A70003260C0F2000046F26261C0F2000140F60E
:104A8000940201F06DF840F29C00C1F6FF700168DD
:104A90004CF20000C4F20200FCF7B0FF80BD000041
:104AA00080B540F29C00C1F6FF70406808B1FFE796
:104AB0000BE046F24A60C0F2000046F26261C0F2CA
:104AC000000140F69D0201F04BF840F29C00C1F657
:104AD000FF7041684DF20000C4F20200FCF78EFF47
:104AE00080BD000010B58AB0DDF830C00890079195
:104AF000ADF81A200593089830B1FFE7059818B172
:104B0000FFE70C9818B9FFE7022009902EE00598FE
:104B100002900C980390FFE70298807818B3FFE7A3
:104B200008980799BDF81A20DDF808C09CF80030F5
:104B30009CF802C0039CEE46CEF80440CEF800C0BC
:104B4000FFF758FD0490049818B1FFE7052009907D
:104B50000CE002988178039808440390FFE70298DC
:104B600004300290D8E700200990FFE709980AB0C6
:104B700010BD0000B0B58CB00A900991ADF82220AC
:104B800007930A9818B1FFE7079818B9FFE70220C2
:104B90000B9038E007980490FFE7049880884FF660
:104BA000FF71401A18BF01208DF817000A98099963
:104BB000BDF82220DDF810E09EF800309EF802C01B
:104BC0009EF803409DF817E00EF00105EE46CEF882
:104BD0000850CEF80440CEF800C0FFF7CFFD069095
:104BE000069818B1FFE704200B900CE004980430FD
:104BF0000490FFE79DF81700C0070028CDD1FFE71C
:104C000000200B90FFE70B980CB0B0BD80B584B0CE
:104C10000390029143F22150ADF80200FFE70298A1
:104C200008B9FFE7FBE7FFE7039808B9FFE7FBE7F1
:104C3000FFE7012008B9FFE7FBE70398019001981F
:104C400000211422FBF7F0FD0298007A0199087008
:104C50000298007A012809D1FFE701980C300299E7
:104C6000C96800F011F9ADF8020000E0FFE7BDF8F7
:104C7000020004B080BD000080B586B005900491AC
:104C80000020ADF80600FFE7059808B9FFE7FBE74D
:104C9000FFE7049808B9FFE7FBE7FFE7012008B941
:104CA000FFE7FBE70598039004980290FDF790F862
:104CB00000900398406828B1FFE743F22250ADF816
:104CC00006000BE002980399486004980021042232
:104CD000FBF7AAFD039802990860FFE70098FDF72B
:104CE00063F9BDF8060006B080BD000080B586B04F
:104CF00005900491FFE7059808B9FFE7FBE7FFE798
:104D0000049808B9FFE7FBE7FFE7012008B9FFE7D0
:104D1000FBE70598039004980290FDF759F801907D
:104D200003998868013088600198FDF73DF904987F
:104D3000002100910422FBF777FD00980399029A65
:104D4000116006B080BD000080B586B0059004916A
:104D50000392FFE7059808B9FFE7FBE7FFE7049830
:104D600008B9FFE7FBE7FFE7039808B9FFE7FBE7B0
:104D700005980290029800680190FFE7019808B931
:104D8000FFE7FBE701980299049A039B00F00EF8F5
:104D900006B080BD80B584B0039002910192039863
:104DA0000299019AFFF7D0FF04B080BD80B586B0AC
:104DB000059004910392029343F22150ADF806004E
:104DC00005980078012809D1FFE705980C30039970
:104DD000029A00F081F8ADF8060000E0FFE7BDF8A8
:104DE000060006B080BD000080B586B00590049135
:104DF0000392029343F22150ADF806000598007823
:104E0000012809D1FFE705980C300399029A00F0B8
:104E100081F8ADF8060000E0FFE7BDF8060006B037
:104E200080BD000080B586B0059004910392FFE735
:104E3000059808B9FFE7FBE7FFE7049808B9FFE723
:104E4000FBE7FFE7039808B9FFE7FBE70598029047
:104E5000029800680190FFE7019808B9FFE7FBE7B7
:104E600001980299049A039BFFF7BEFF06B080BD2C
:104E700080B584B003900291019203980299019A3F
:104E8000FFF7D0FF04B080BD80B584B003900291DD
:104E90000020ADF80200FFE7029808B9FFE7FBE742
:104EA000FFE7039808B9FFE7FBE7FFE7012008B930
:104EB000FFE7FBE70398019001980299FDF796FA46
:104EC000ADF80200FFE7BDF8020008B1FFE7FAE71E
:104ED000BDF8020004B080BD80B584B0039002919B
:104EE0000192FFE7039808B9FFE7FBE7FFE70298A5
:104EF00008B9FFE7FBE7FFE7019808B9FFE7FBE721
:104F00000398009000980299019AFDF71BFB04B0EA
:104F100080BD000080B584B0039002910192FFE74C
:104F2000039808B9FFE7FBE7FFE7029808B9FFE736
:104F3000FBE7FFE7019808B9FFE7FBE7039800905C
:104F400000980299019AFDF747FB04B080BD00006C
:104F500070B5ACB02B912A902992289300201D9017
:104F60001C901B9015900F900E902A982790FFE7A9
:104F70002798007808B9FFE719E2279800788DF89C
:104F80009B009DF89B0025280CD0FFE7DDF8A0C012
:104F900029989DF89B201BA90123E0472798013001
:104FA0002790E5E701208DF85B0027A80B90FEF71E
:104FB000DFFF01460B9814912BA90A91FFF732F9F4
:104FC0000A9902460B981A920DF13702FFF764F81E
:104FD00001460B981991FFF717F8014614980843FA
:104FE00014902798411C279140788DF89B009DF8DC
:104FF0009B00FFF757F901285DD1FFE79DF85100AD
:10500000C00760B1FFE72B98073020F0070101F1DE
:1050100008002B90086849681191109016E09DF8DF
:1050200050000006002808D5FFE72B98011D2B91A2
:105030000168C8171091119007E02B98011D2B9162
:105040000168C81710911190FFE7FFE79DF85B001A
:1050500000F00100694608600DF17A00099010A97E
:1050600001220A23FCF7FAFA014609981C911C99BF
:1050700008441D9010981199149A0DF14F03FFF7F1
:105080009FF801461C9808441C9014981A991C9A81
:105090009DF84F30DDF874C0289C299DEE461BAE6C
:1050A000CEF80C60CEF80850CEF80440CEF800C020
:1050B000FFF75AF977E19DF89B00FFF709F90128FE
:1050C00007D1FFE72B98073020F0070008302B901E
:1050D00068E19DF89B00FFF731F901285DD1FFE7FA
:1050E0009DF89B00782804D1FFE700208DF85B0035
:1050F000FFE79DF85100C00760B1FFE72B9807302C
:1051000020F0070101F108002B90086849680F9111
:105110000E9016E09DF850000006002808D5FFE725
:105120002B98011D2B91006800210F910E9007E034
:105130002B98011D2B91006800210F910E90FFE725
:10514000FFE79DF85B0000F00100694608600DF183
:105150007A0008900EA900221023FCF77FFA01467E
:1051600008981C911C9908441D9014981A991C9A2F
:10517000DDF874C0289C299D9DF85B30EE461BAE7F
:10518000CEF80C60CEF80850CEF80440CEF800C03F
:1051900003F00103FFF768F903E19DF89B00FFF7B7
:1051A000ADF8012868D1FFE79DF89B0070280BD16E
:1051B000FFE72B98011D2B9100680C900EA80CA9FD
:1051C0000422FBF72DFB28E09DF85100C00760B1D9
:1051D000FFE72B98073020F0070101F108002B9022
:1051E000086849680F910E9016E09DF8500000067F
:1051F000002808D5FFE72B98011D2B91006800219E
:105200000F910E9007E02B98011D2B910068002153
:105210000F910E90FFE7FFE7FFE79DF89B00FEF779
:10522000A7FF1590159B9DF85B0000F001006946F3
:1052300008600DF17A0007900EA900220692FCF793
:105240000DFA069B014607981C911C9908441D9075
:1052500014981A991C9ADDF874C0289C299DEE4672
:105260001BAECEF80C60CEF80850CEF80440CEF855
:1052700000C0FFF779F893E09DF89B0063280ED1FA
:10528000FFE72B98011D2B9100681790DDF8A0C057
:1052900029989DF85C201BA90123E0477FE09DF839
:1052A0009B00732871D1FFE72B98011D2B9100689B
:1052B00018901898002867D0FFE79DF83700C007BE
:1052C00018B1FFE719981C9004E01898FBF744FA0E
:1052D0001C90FFE79DF85000C00750B9FFE7DDF8CC
:1052E000A0C029981A991C9A8B1A1BA92022E04762
:1052F000FFE79DF83700C00728B3FFE7FFE71898DE
:1053000001780020059039B1FFE71C9900200029A1
:10531000C8BF01200590FFE70598C00770B1FFE7FF
:10532000DDF8A0C0299818994A1C18920A781BA980
:105330000123E0471C9801381C90E0E719981C995C
:10534000401A1C9010E0FFE71898007858B1FFE76A
:10535000DDF8A0C0299818994A1C18920A781BA950
:105360000123E047F0E7FFE79DF85000C00750B188
:10537000FFE7DDF8A0C029981A991C9A8B1A1BA97F
:105380002022E047FFE7FFE708E0DDF8A0C029980A
:105390009DF89B201BA90123E047FFE7FFE7FFE7FC
:1053A000FFE7FFE7FFE7279801302790E0E51B982C
:1053B0002CB070BD40F2A401C1F6FF710868013045
:1053C0000860704780B54EF68851CEF2000108683B
:1053D00040F47000086042F20E01C4F205014CF284
:1053E000205008804DF62810088042F20001C4F2D7
:1053F00005014FF4E970088000F002F880BD00005C
:105400007047000080B540F25C00C1F6FF70026892
:1054100040F23460C1F6FF7001684AF20000C4F245
:1054200006009047BFF34F8F80BD000080B5FFF7A7
:10543000E9FFBFF34F8F80BD80B540F25C00C1F63D
:10544000FF70026840F23460C1F6FF7041684BF2B1
:105450000000C4F206009047BFF34F8F80BD0000EC
:1054600080B5FFF7E9FFBFF34F8F80BD80B540F2F5
:105470005C00C1F6FF70026840F23460C1F6FF7054
:1054800081684CF20000C4F206009047BFF34F8FD2
:1054900080BD000080B5FFF7E9FFBFF34F8F80BDEF
:1054A00080B586B005900491059840798DF80F007D
:1054B0009DF80F0000F03F008DF80F009DF80F00E1
:1054C000049940EA1120059948719DF81300059947
:1054D00088749DF81000C00668B1FFE70598007950
:1054E0000598C0790599012088740599487C40F099
:1054F00040004874FFE704980190059800F074F8A4
:1055000001460198084204D0FFE740F2EE300290D5
:1055100002E000200290FFE7029806B080BD000084
:1055200080B582B00190019808B1FFE70BE046F624
:105530006100C0F2000046F68B01C0F2000140F2AB
:105540008F1200F00DFB0198002100910C22FBF757
:105550006BF90098019A4FF4E131116001990871DB
:1055600001994871019A012191710199C8710199BC
:10557000087201994872019988720199C87202B043
:1055800080BD000084B003900320019000200290B1
:10559000FFE702980199884211D2FFE7029946F28B
:1055A000E010C0F2000050F821000399884201D1B8
:1055B000FFE704E0FFE7029801300290E9E7029874
:1055C0000199884201D2FFE70AE046F66E10C0F268
:1055D000000046F68B01C0F200018E2200F0C0FAF6
:1055E000029804B07047000082B0019001980079E1
:1055F000009001984179009840EA012000900198BC
:10560000017B009840EA014000900198817C00985D
:1056100040EA01600090009802B0704780B592B0F7
:1056200010900F910E920F9808B1FFE70AE046F62E
:105630006100C0F2000046F68B01C0F20001D722E3
:1056400000F08EFA0F98006808B1FFE70AE046F60E
:105650007000C0F2000046F68B01C0F20001D822B3
:1056600000F07EFA10984AF20001C4F20601884266
:1056700003D1FFE70820089019E010984BF20001D1
:10568000C4F20601884203D1FFE7012007900BE036
:1056900010994CF20002C4F206024FF0FF30914222
:1056A00008BF01200790FFE707980890FFE70898D8
:1056B000C0B20F994979884201DBFFE70AE046F65C
:1056C0002810C0F2000046F68B01C0F20001DA2279
:1056D00000F046FA10984AF20001C4F2060188422E
:1056E00003D1FFE70820069019E010984BF2000163
:1056F000C4F20601884203D1FFE7012005900BE0C8
:1057000010994CF20002C4F206024FF0FF309142B1
:1057100008BF01200590FFE705980690FFE706986F
:1057200010984AF20001C4F20601884203D1FFE753
:105730000820049019E010984BF20001C4F2060111
:10574000884203D1FFE7012003900BE010994CF24F
:105750000002C4F206024FF0FF30914208BF012060
:105760000390FFE703980490FFE70498C0B20F99F5
:105770008979884201DBFFE70AE046F6E200C0F2E1
:10578000000046F68B01C0F20001DB2200F0E8F9D0
:1057900010984AF20001C4F20601884203D1FFE7E3
:1057A0000820029019E010984BF20001C4F20601A3
:1057B000884203D1FFE7012001900BE010994CF2E1
:1057C0000002C4F206024FF0FF30914208BF0120F0
:1057D0000190FFE701980290FFE7029800200D90EA
:1057E0008DF833000B900E980F9909680901B0FBF2
:1057F000F1F00D900D9818B9FFE701200D90FFE72B
:1058000000200A900E9840000F990968B0FBF1F053
:105810000D99A0EB411009900E9840000D9A09993E
:1058200001EB4211B0FBF1F00A900A980F99096858
:10583000884206D9FFE70A980F990968401A009034
:1058400005E00F9800680A99401A0090FFE7009859
:105850000B900B980F99096848F21F52C5F2EB1292
:10586000A1FB0221490901EB4101884204D9FFE76C
:1058700040F2F530119093E01098FFF783FE014657
:1058800046F2EC10C0F2000050F82100FBF77EF960
:105890001099C87800F0F300C8701098007800F0F4
:1058A000E0000D9940EA1120109908700D981099A8
:1058B00048701098807A00F0E000099901F01F010B
:1058C0000844109988721098807800F0E8008DF8EC
:1058D00033000F98407A00F001019DF8330040EA50
:1058E00081008DF833000F98007950B1FFE70F98D1
:1058F00000799DF83310084340F010008DF8330014
:10590000FFE79DF83300109988700F98407910993F
:10591000C8740F988079109948751099087C40F0E8
:10592000880008741099487C40F0C00048740F98B3
:10593000C079C00730B1FFE71099487B40F00800FC
:105940004873FFE70F98007AC00730B1FFE710995E
:10595000487B40F001004873FFE71098C0788DF84D
:1059600033000F98807AC00738B1FFE79DF8330005
:1059700040F008008DF83300FFE70F98C07AC007A9
:1059800038B1FFE79DF8330040F004008DF8330094
:10599000FFE79DF833001099C87000201190FFE7D1
:1059A000119812B080BD000080B586B005900491BA
:1059B0000392049808B1FFE70BE046F65400C0F2EA
:1059C000000046F68B01C0F2000140F23E3200F0CA
:1059D000C7F800200290FFE70398411E03910028BA
:1059E00066D0FFE7FFE70598807D002854D1FFE7E8
:1059F0000598FFF7F9FD01909DF8040000070028C5
:105A00000DD5FFE705980821FFF74AFD014640F252
:105A1000EE30002908BF40F2F13002903CE09DF8E2
:105A20000400C00768B1FFE705980121FFF738FDC2
:105A3000014640F2EE30002908BF4FF47D7002901D
:105A4000FFE79DF80400800700280DD5FFE70598C3
:105A50000221FFF725FD014640F2EE30002908BF84
:105A600040F2F3300290FFE79DF804004007002861
:105A70000DD5FFE705980421FFF712FD014640F21E
:105A8000EE30002908BF40F2F2300290FFE70298A2
:105A900008B1FFE700E0A6E7029838B9FFE70598EC
:105AA000C07904994A1C0492087000E000E093E772
:105AB000029806B080BD000083B002900191009270
:105AC000FFE70098411E009178B1FFE7FFE70298D9
:105AD00000790006002801D4FFE7F8E70198411C8F
:105AE000019100780299C871EBE7FFE7029800790D
:105AF0004006002801D4FFE7F8E7002003B0704714
:105B000081B08DF803009DF9030000280ED4FFE753
:105B10009DF9031001F01F02012090404A094EF246
:105B20000011CEF2000141F82200FFE701B07047FA
:105B300081B08DF803009DF9030000280ED4FFE723
:105B40009DF9031001F01F02012090404A094EF216
:105B50000011CEF2000141F82200FFE701B07047CA
:105B600084B00390029101920399029A019B46F638
:105B70008810C0F20000FCF769F8FFE700BEFDE7FF
:105B800081B0009040F29A01C1F6FF7101200870C7
:105B900001B0704780B582B00190019800900099E3
:105BA0000868C968FCF7CAFB02B080BD81B046F244
:105BB0008600C0F2000000680090009801B07047B5
:105BC00080B586B005908DF813100598FCF7D6FBCC
:105BD000039000208DF80B00FFE79DF80B001F28B5
:105BE00036DCFFE703989DF80B10C840C00740B3B0
:105BF000FFE79DF8131040F2B400C1F6FF7000EB10
:105C000001209DF80B1000EBC10040680190019845
:105C100008B9FFE716E001999DF8132040F2B4009F
:105C2000C1F6FF7000EB02209DF80B2050F8320007
:105C3000884705989DF80B2001219140FCF786FBD1
:105C4000FFE7FFE79DF80B0001308DF80B00C4E77C
:105C500006B080BD80B586B0DDF820C005908DF817
:105C600013100392029303980190059800900398F3
:105C700088B9FFE740F24400C1F6FF700190019936
:105C8000887840F0030088700199C87800F0F80027
:105C90000130C870FFE700984069FAF74BFF0099A0
:105CA00048688968019A0232FEF71AF99DF81300D4
:105CB000002818BF012001990870009908688968B8
:105CC000019AFCF7CDFA029810B3FFE7009890F91B
:105CD0001000FCF773F90298009B1A7E40F2B401A1
:105CE000C1F6FF7101EB02229B6802EBC302506018
:105CF0000898009A137E01EB0321926841F8320064
:105D0000009948688968019A1279FEF709F9FFE756
:105D100006B080BD80B582B00190019800900099D6
:105D200008688968FCF7CEFA02B080BD80B582B001
:105D300001900198009000990868C968FCF734FB4D
:105D400002B080BD80B582B00190019800900099AA
